{
	"_format": "hh-sol-artifact-1",
	"contractName": "Biorbit",
	"sourceName": "contracts/biorbit/Biorbit.sol",
	"address": "0x9D32b1b39c66f7565bf77113480DcA611f0a5C1c",
	"abi": [
		{
			"inputs": [
				{
					"internalType": "address",
					"name": "_relay",
					"type": "address"
				}
			],
			"stateMutability": "nonpayable",
			"type": "constructor"
		},
		{
			"anonymous": false,
			"inputs": [
				{
					"indexed": true,
					"internalType": "address",
					"name": "owner",
					"type": "address"
				},
				{
					"indexed": true,
					"internalType": "address",
					"name": "approved",
					"type": "address"
				},
				{
					"indexed": true,
					"internalType": "uint256",
					"name": "tokenId",
					"type": "uint256"
				}
			],
			"name": "Approval",
			"type": "event"
		},
		{
			"anonymous": false,
			"inputs": [
				{
					"indexed": true,
					"internalType": "address",
					"name": "owner",
					"type": "address"
				},
				{
					"indexed": true,
					"internalType": "address",
					"name": "operator",
					"type": "address"
				},
				{
					"indexed": false,
					"internalType": "bool",
					"name": "approved",
					"type": "bool"
				}
			],
			"name": "ApprovalForAll",
			"type": "event"
		},
		{
			"anonymous": false,
			"inputs": [
				{
					"indexed": false,
					"internalType": "uint256",
					"name": "",
					"type": "uint256"
				},
				{
					"indexed": false,
					"internalType": "string",
					"name": "",
					"type": "string"
				},
				{
					"indexed": false,
					"internalType": "string",
					"name": "",
					"type": "string"
				},
				{
					"indexed": false,
					"internalType": "string",
					"name": "",
					"type": "string"
				},
				{
					"indexed": false,
					"internalType": "string",
					"name": "",
					"type": "string"
				},
				{
					"indexed": false,
					"internalType": "string",
					"name": "",
					"type": "string"
				}
			],
			"name": "ProtectedAreaCreated",
			"type": "event"
		},
		{
			"anonymous": false,
			"inputs": [
				{
					"indexed": true,
					"internalType": "bytes32",
					"name": "role",
					"type": "bytes32"
				},
				{
					"indexed": true,
					"internalType": "bytes32",
					"name": "previousAdminRole",
					"type": "bytes32"
				},
				{
					"indexed": true,
					"internalType": "bytes32",
					"name": "newAdminRole",
					"type": "bytes32"
				}
			],
			"name": "RoleAdminChanged",
			"type": "event"
		},
		{
			"anonymous": false,
			"inputs": [
				{
					"indexed": true,
					"internalType": "bytes32",
					"name": "role",
					"type": "bytes32"
				},
				{
					"indexed": true,
					"internalType": "address",
					"name": "account",
					"type": "address"
				},
				{
					"indexed": true,
					"internalType": "address",
					"name": "sender",
					"type": "address"
				}
			],
			"name": "RoleGranted",
			"type": "event"
		},
		{
			"anonymous": false,
			"inputs": [
				{
					"indexed": true,
					"internalType": "bytes32",
					"name": "role",
					"type": "bytes32"
				},
				{
					"indexed": true,
					"internalType": "address",
					"name": "account",
					"type": "address"
				},
				{
					"indexed": true,
					"internalType": "address",
					"name": "sender",
					"type": "address"
				}
			],
			"name": "RoleRevoked",
			"type": "event"
		},
		{
			"anonymous": false,
			"inputs": [
				{
					"indexed": true,
					"internalType": "address",
					"name": "from",
					"type": "address"
				},
				{
					"indexed": true,
					"internalType": "address",
					"name": "to",
					"type": "address"
				},
				{
					"indexed": true,
					"internalType": "uint256",
					"name": "tokenId",
					"type": "uint256"
				}
			],
			"name": "Transfer",
			"type": "event"
		},
		{
			"inputs": [],
			"name": "ADMIN_ROLE",
			"outputs": [
				{
					"internalType": "bytes32",
					"name": "",
					"type": "bytes32"
				}
			],
			"stateMutability": "view",
			"type": "function"
		},
		{
			"inputs": [],
			"name": "DEFAULT_ADMIN_ROLE",
			"outputs": [
				{
					"internalType": "bytes32",
					"name": "",
					"type": "bytes32"
				}
			],
			"stateMutability": "view",
			"type": "function"
		},
		{
			"inputs": [
				{
					"internalType": "address",
					"name": "to",
					"type": "address"
				},
				{
					"internalType": "uint256",
					"name": "tokenId",
					"type": "uint256"
				}
			],
			"name": "approve",
			"outputs": [],
			"stateMutability": "nonpayable",
			"type": "function"
		},
		{
			"inputs": [
				{
					"internalType": "address",
					"name": "owner",
					"type": "address"
				}
			],
			"name": "balanceOf",
			"outputs": [
				{
					"internalType": "uint256",
					"name": "",
					"type": "uint256"
				}
			],
			"stateMutability": "view",
			"type": "function"
		},
		{
			"inputs": [
				{
					"internalType": "uint256",
					"name": "_satelliteImageId",
					"type": "uint256"
				}
			],
			"name": "buySatelliteImage",
			"outputs": [],
			"stateMutability": "payable",
			"type": "function"
		},
		{
			"inputs": [],
			"name": "donation",
			"outputs": [
				{
					"internalType": "uint256",
					"name": "",
					"type": "uint256"
				}
			],
			"stateMutability": "view",
			"type": "function"
		},
		{
			"inputs": [
				{
					"internalType": "uint256",
					"name": "tokenId",
					"type": "uint256"
				}
			],
			"name": "getApproved",
			"outputs": [
				{
					"internalType": "address",
					"name": "",
					"type": "address"
				}
			],
			"stateMutability": "view",
			"type": "function"
		},
		{
			"inputs": [
				{
					"internalType": "string",
					"name": "name",
					"type": "string"
				}
			],
			"name": "getProtectedAreaByName",
			"outputs": [
				{
					"components": [
						{
							"internalType": "uint256",
							"name": "id",
							"type": "uint256"
						},
						{
							"internalType": "string",
							"name": "name",
							"type": "string"
						},
						{
							"internalType": "string",
							"name": "photo",
							"type": "string"
						},
						{
							"internalType": "string",
							"name": "description",
							"type": "string"
						},
						{
							"internalType": "string",
							"name": "country",
							"type": "string"
						},
						{
							"internalType": "string",
							"name": "geoJson",
							"type": "string"
						},
						{
							"internalType": "string",
							"name": "lastDetectionDate",
							"type": "string"
						},
						{
							"internalType": "uint256",
							"name": "totalExtension",
							"type": "uint256"
						},
						{
							"internalType": "string[]",
							"name": "detectionDates",
							"type": "string[]"
						},
						{
							"internalType": "uint256[]",
							"name": "forestCoverExtensions",
							"type": "uint256[]"
						},
						{
							"internalType": "address[]",
							"name": "donates",
							"type": "address[]"
						},
						{
							"components": [
								{
									"internalType": "uint256",
									"name": "id",
									"type": "uint256"
								},
								{
									"internalType": "contract IERC721",
									"name": "nft",
									"type": "address"
								},
								{
									"internalType": "string",
									"name": "uri",
									"type": "string"
								},
								{
									"internalType": "uint256",
									"name": "price",
									"type": "uint256"
								},
								{
									"internalType": "bool",
									"name": "sold",
									"type": "bool"
								},
								{
									"internalType": "address payable",
									"name": "seller",
									"type": "address"
								}
							],
							"internalType": "struct Biorbit.SatelliteImage[]",
							"name": "satelliteImages",
							"type": "tuple[]"
						}
					],
					"internalType": "struct Biorbit.ProtectedArea",
					"name": "",
					"type": "tuple"
				}
			],
			"stateMutability": "view",
			"type": "function"
		},
		{
			"inputs": [],
			"name": "getProtectedAreasByUsedNames",
			"outputs": [
				{
					"components": [
						{
							"internalType": "uint256",
							"name": "id",
							"type": "uint256"
						},
						{
							"internalType": "string",
							"name": "name",
							"type": "string"
						},
						{
							"internalType": "string",
							"name": "photo",
							"type": "string"
						},
						{
							"internalType": "string",
							"name": "description",
							"type": "string"
						},
						{
							"internalType": "string",
							"name": "country",
							"type": "string"
						},
						{
							"internalType": "string",
							"name": "geoJson",
							"type": "string"
						},
						{
							"internalType": "string",
							"name": "lastDetectionDate",
							"type": "string"
						},
						{
							"internalType": "uint256",
							"name": "totalExtension",
							"type": "uint256"
						},
						{
							"internalType": "string[]",
							"name": "detectionDates",
							"type": "string[]"
						},
						{
							"internalType": "uint256[]",
							"name": "forestCoverExtensions",
							"type": "uint256[]"
						},
						{
							"internalType": "address[]",
							"name": "donates",
							"type": "address[]"
						},
						{
							"components": [
								{
									"internalType": "uint256",
									"name": "id",
									"type": "uint256"
								},
								{
									"internalType": "contract IERC721",
									"name": "nft",
									"type": "address"
								},
								{
									"internalType": "string",
									"name": "uri",
									"type": "string"
								},
								{
									"internalType": "uint256",
									"name": "price",
									"type": "uint256"
								},
								{
									"internalType": "bool",
									"name": "sold",
									"type": "bool"
								},
								{
									"internalType": "address payable",
									"name": "seller",
									"type": "address"
								}
							],
							"internalType": "struct Biorbit.SatelliteImage[]",
							"name": "satelliteImages",
							"type": "tuple[]"
						}
					],
					"internalType": "struct Biorbit.ProtectedArea[]",
					"name": "",
					"type": "tuple[]"
				}
			],
			"stateMutability": "view",
			"type": "function"
		},
		{
			"inputs": [
				{
					"internalType": "bytes32",
					"name": "role",
					"type": "bytes32"
				}
			],
			"name": "getRoleAdmin",
			"outputs": [
				{
					"internalType": "bytes32",
					"name": "",
					"type": "bytes32"
				}
			],
			"stateMutability": "view",
			"type": "function"
		},
		{
			"inputs": [
				{
					"internalType": "uint256",
					"name": "_satelliteImageId",
					"type": "uint256"
				}
			],
			"name": "getSatelliteImage",
			"outputs": [
				{
					"components": [
						{
							"internalType": "uint256",
							"name": "id",
							"type": "uint256"
						},
						{
							"internalType": "contract IERC721",
							"name": "nft",
							"type": "address"
						},
						{
							"internalType": "string",
							"name": "uri",
							"type": "string"
						},
						{
							"internalType": "uint256",
							"name": "price",
							"type": "uint256"
						},
						{
							"internalType": "bool",
							"name": "sold",
							"type": "bool"
						},
						{
							"internalType": "address payable",
							"name": "seller",
							"type": "address"
						}
					],
					"internalType": "struct Biorbit.SatelliteImage",
					"name": "",
					"type": "tuple"
				}
			],
			"stateMutability": "view",
			"type": "function"
		},
		{
			"inputs": [
				{
					"internalType": "string",
					"name": "_protectedAreaName",
					"type": "string"
				}
			],
			"name": "getSoldSatelliteImagesByProtectedArea",
			"outputs": [
				{
					"components": [
						{
							"internalType": "uint256",
							"name": "id",
							"type": "uint256"
						},
						{
							"internalType": "contract IERC721",
							"name": "nft",
							"type": "address"
						},
						{
							"internalType": "string",
							"name": "uri",
							"type": "string"
						},
						{
							"internalType": "uint256",
							"name": "price",
							"type": "uint256"
						},
						{
							"internalType": "bool",
							"name": "sold",
							"type": "bool"
						},
						{
							"internalType": "address payable",
							"name": "seller",
							"type": "address"
						}
					],
					"internalType": "struct Biorbit.SatelliteImage[]",
					"name": "",
					"type": "tuple[]"
				}
			],
			"stateMutability": "view",
			"type": "function"
		},
		{
			"inputs": [
				{
					"internalType": "bytes32",
					"name": "role",
					"type": "bytes32"
				},
				{
					"internalType": "address",
					"name": "account",
					"type": "address"
				}
			],
			"name": "grantRole",
			"outputs": [],
			"stateMutability": "nonpayable",
			"type": "function"
		},
		{
			"inputs": [
				{
					"internalType": "bytes32",
					"name": "role",
					"type": "bytes32"
				},
				{
					"internalType": "address",
					"name": "account",
					"type": "address"
				}
			],
			"name": "hasRole",
			"outputs": [
				{
					"internalType": "bool",
					"name": "",
					"type": "bool"
				}
			],
			"stateMutability": "view",
			"type": "function"
		},
		{
			"inputs": [
				{
					"internalType": "address",
					"name": "owner",
					"type": "address"
				},
				{
					"internalType": "address",
					"name": "operator",
					"type": "address"
				}
			],
			"name": "isApprovedForAll",
			"outputs": [
				{
					"internalType": "bool",
					"name": "",
					"type": "bool"
				}
			],
			"stateMutability": "view",
			"type": "function"
		},
		{
			"inputs": [
				{
					"internalType": "string",
					"name": "_protectedAreaName",
					"type": "string"
				},
				{
					"internalType": "uint256",
					"name": "_protectedAreaId",
					"type": "uint256"
				},
				{
					"internalType": "string",
					"name": "_protectedAreaURI",
					"type": "string"
				}
			],
			"name": "mint",
			"outputs": [
				{
					"internalType": "uint256",
					"name": "",
					"type": "uint256"
				}
			],
			"stateMutability": "nonpayable",
			"type": "function"
		},
		{
			"inputs": [
				{
					"internalType": "string",
					"name": "_name",
					"type": "string"
				},
				{
					"internalType": "string",
					"name": "_photo",
					"type": "string"
				},
				{
					"internalType": "string",
					"name": "_description",
					"type": "string"
				},
				{
					"internalType": "string",
					"name": "_geoJson",
					"type": "string"
				},
				{
					"internalType": "string",
					"name": "_country",
					"type": "string"
				}
			],
			"name": "monitorProtectedArea",
			"outputs": [],
			"stateMutability": "payable",
			"type": "function"
		},
		{
			"inputs": [],
			"name": "name",
			"outputs": [
				{
					"internalType": "string",
					"name": "",
					"type": "string"
				}
			],
			"stateMutability": "view",
			"type": "function"
		},
		{
			"inputs": [
				{
					"internalType": "uint256",
					"name": "tokenId",
					"type": "uint256"
				}
			],
			"name": "ownerOf",
			"outputs": [
				{
					"internalType": "address",
					"name": "",
					"type": "address"
				}
			],
			"stateMutability": "view",
			"type": "function"
		},
		{
			"inputs": [],
			"name": "price",
			"outputs": [
				{
					"internalType": "uint256",
					"name": "",
					"type": "uint256"
				}
			],
			"stateMutability": "view",
			"type": "function"
		},
		{
			"inputs": [],
			"name": "relay",
			"outputs": [
				{
					"internalType": "address",
					"name": "",
					"type": "address"
				}
			],
			"stateMutability": "view",
			"type": "function"
		},
		{
			"inputs": [
				{
					"internalType": "bytes32",
					"name": "role",
					"type": "bytes32"
				},
				{
					"internalType": "address",
					"name": "account",
					"type": "address"
				}
			],
			"name": "renounceRole",
			"outputs": [],
			"stateMutability": "nonpayable",
			"type": "function"
		},
		{
			"inputs": [
				{
					"internalType": "bytes32",
					"name": "role",
					"type": "bytes32"
				},
				{
					"internalType": "address",
					"name": "account",
					"type": "address"
				}
			],
			"name": "revokeRole",
			"outputs": [],
			"stateMutability": "nonpayable",
			"type": "function"
		},
		{
			"inputs": [
				{
					"internalType": "address",
					"name": "from",
					"type": "address"
				},
				{
					"internalType": "address",
					"name": "to",
					"type": "address"
				},
				{
					"internalType": "uint256",
					"name": "tokenId",
					"type": "uint256"
				}
			],
			"name": "safeTransferFrom",
			"outputs": [],
			"stateMutability": "nonpayable",
			"type": "function"
		},
		{
			"inputs": [
				{
					"internalType": "address",
					"name": "from",
					"type": "address"
				},
				{
					"internalType": "address",
					"name": "to",
					"type": "address"
				},
				{
					"internalType": "uint256",
					"name": "tokenId",
					"type": "uint256"
				},
				{
					"internalType": "bytes",
					"name": "data",
					"type": "bytes"
				}
			],
			"name": "safeTransferFrom",
			"outputs": [],
			"stateMutability": "nonpayable",
			"type": "function"
		},
		{
			"inputs": [
				{
					"internalType": "uint256",
					"name": "",
					"type": "uint256"
				}
			],
			"name": "satelliteImagesOfProtectedArea",
			"outputs": [
				{
					"internalType": "string",
					"name": "",
					"type": "string"
				}
			],
			"stateMutability": "view",
			"type": "function"
		},
		{
			"inputs": [
				{
					"internalType": "uint256",
					"name": "_satelliteImageId",
					"type": "uint256"
				}
			],
			"name": "sellSatelliteImage",
			"outputs": [],
			"stateMutability": "nonpayable",
			"type": "function"
		},
		{
			"inputs": [
				{
					"internalType": "address",
					"name": "operator",
					"type": "address"
				},
				{
					"internalType": "bool",
					"name": "approved",
					"type": "bool"
				}
			],
			"name": "setApprovalForAll",
			"outputs": [],
			"stateMutability": "nonpayable",
			"type": "function"
		},
		{
			"inputs": [
				{
					"internalType": "uint256",
					"name": "_donation",
					"type": "uint256"
				}
			],
			"name": "setDonation",
			"outputs": [
				{
					"internalType": "uint256",
					"name": "",
					"type": "uint256"
				}
			],
			"stateMutability": "nonpayable",
			"type": "function"
		},
		{
			"inputs": [
				{
					"internalType": "uint256",
					"name": "_price",
					"type": "uint256"
				}
			],
			"name": "setPrice",
			"outputs": [
				{
					"internalType": "uint256",
					"name": "",
					"type": "uint256"
				}
			],
			"stateMutability": "nonpayable",
			"type": "function"
		},
		{
			"inputs": [
				{
					"internalType": "address",
					"name": "_relay",
					"type": "address"
				}
			],
			"name": "setRelayAddress",
			"outputs": [],
			"stateMutability": "nonpayable",
			"type": "function"
		},
		{
			"inputs": [
				{
					"internalType": "uint256",
					"name": "_protectedAreaId",
					"type": "uint256"
				},
				{
					"internalType": "string",
					"name": "_protectedAreaName",
					"type": "string"
				},
				{
					"internalType": "string",
					"name": "_lastDetectionDate",
					"type": "string"
				},
				{
					"internalType": "uint256",
					"name": "_totalExtension",
					"type": "uint256"
				},
				{
					"internalType": "string[]",
					"name": "_detectionDates",
					"type": "string[]"
				},
				{
					"internalType": "uint256[]",
					"name": "_forestCoverExtensions",
					"type": "uint256[]"
				}
			],
			"name": "storeMonitoringData",
			"outputs": [],
			"stateMutability": "nonpayable",
			"type": "function"
		},
		{
			"inputs": [
				{
					"internalType": "bytes4",
					"name": "interfaceId",
					"type": "bytes4"
				}
			],
			"name": "supportsInterface",
			"outputs": [
				{
					"internalType": "bool",
					"name": "",
					"type": "bool"
				}
			],
			"stateMutability": "view",
			"type": "function"
		},
		{
			"inputs": [],
			"name": "symbol",
			"outputs": [
				{
					"internalType": "string",
					"name": "",
					"type": "string"
				}
			],
			"stateMutability": "view",
			"type": "function"
		},
		{
			"inputs": [
				{
					"internalType": "uint256",
					"name": "tokenId",
					"type": "uint256"
				}
			],
			"name": "tokenURI",
			"outputs": [
				{
					"internalType": "string",
					"name": "",
					"type": "string"
				}
			],
			"stateMutability": "view",
			"type": "function"
		},
		{
			"inputs": [],
			"name": "totalAsserts",
			"outputs": [
				{
					"internalType": "uint256",
					"name": "",
					"type": "uint256"
				}
			],
			"stateMutability": "view",
			"type": "function"
		},
		{
			"inputs": [
				{
					"internalType": "address",
					"name": "from",
					"type": "address"
				},
				{
					"internalType": "address",
					"name": "to",
					"type": "address"
				},
				{
					"internalType": "uint256",
					"name": "tokenId",
					"type": "uint256"
				}
			],
			"name": "transferFrom",
			"outputs": [],
			"stateMutability": "nonpayable",
			"type": "function"
		}
	],
	"bytecode": "0x60806040526702c68af0bb140000600b5567016345785d8a0000600c553480156200002957600080fd5b5060405162005bad38038062005bad8339810160408190526200004c916200020f565b60405180604001604052806007815260200166109a5bdc989a5d60ca1b815250604051806040016040528060038152602001621093d560ea1b81525081600090816200009991906200034b565b506001620000a882826200034b565b5050600160085550620000bd6000336200010f565b620000e97fa49807205ce4d355092ef5a8a18f56e8913cf4a201fbe287825b095693c21775336200010f565b600d80546001600160a01b0319166001600160a01b03929092169190911790556200041b565b6200011b82826200011f565b5050565b6200012b8282620001a9565b6200011b5760008281526007602090815260408083206001600160a01b03851684529091529020805460ff19166001179055620001653390565b6001600160a01b0316816001600160a01b0316837f2f8788117e7eff1d82e926ec794901d17c78024a50270940304540a733656f0d60405160405180910390a45050565b60008281526007602090815260408083206001600160a01b038516845290915290205460ff165b92915050565b60006001600160a01b038216620001d0565b620001f381620001d6565b8114620001ff57600080fd5b50565b8051620001d081620001e8565b600060208284031215620002265762000226600080fd5b600062000234848462000202565b949350505050565b634e487b7160e01b600052604160045260246000fd5b634e487b7160e01b600052602260045260246000fd5b6002810460018216806200027d57607f821691505b60208210810362000292576200029262000252565b50919050565b6000620001d0620002a68381565b90565b620002b48362000298565b81546008840282811b60001990911b908116901990911617825550505050565b6000620002e3818484620002a9565b505050565b818110156200011b57620002fe600082620002d4565b600101620002e8565b601f821115620002e3576000818152602090206020601f85010481016020851015620003305750805b620003446020601f860104830182620002e8565b5050505050565b81516001600160401b038111156200036757620003676200023c565b62000373825462000268565b6200038082828562000307565b6020601f831160018114620003b757600084156200039e5750858201515b600019600886021c198116600286021786555062000413565b600085815260208120601f198616915b82811015620003e95788850151825560209485019460019092019101620003c7565b86831015620004065784890151600019601f89166008021c191682555b6001600288020188555050505b505050505050565b615782806200042b6000396000f3fe60806040526004361061026a5760003560e01c806391d1485411610153578063bdc808ab116100cb578063dfef35071161007f578063e985e9c511610064578063e985e9c514610710578063f676c64914610759578063fe0fe1241461077b57600080fd5b8063dfef3507146106ea578063e5c65d30146106fd57600080fd5b8063c87b56dd116100b0578063c87b56dd1461067d578063d547741f1461069d578063d59e1e54146106bd57600080fd5b8063bdc808ab1461063d578063c1b791401461065d57600080fd5b8063a22cb46511610122578063aeba8f3c11610107578063aeba8f3c146105dd578063b59589d1146105fd578063b88d4fde1461061d57600080fd5b8063a22cb46514610590578063aa9f7a89146105b057600080fd5b806391d148541461050a57806395d89b4114610550578063a035b1fe14610565578063a217fddf1461057b57600080fd5b806336568abe116101e657806370a08231116101b55780637bb5c63d1161019a5780637bb5c63d146104a75780638edeb15d146104d457806391b7f5ed146104ea57600080fd5b806370a082311461045357806375b238fc1461047357600080fd5b806336568abe146103d3578063398440ba146103f357806342842e0e146104135780636352211e1461043357600080fd5b8063095ea7b31161023d57806323b872dd1161022257806323b872dd14610363578063248a9ca3146103835780632f2ff15d146103b357600080fd5b8063095ea7b31461032157806310fc459a1461034357600080fd5b806301ffc9a71461026f57806306bdc949146102a557806306fdde03146102d2578063081812fc146102f4575b600080fd5b34801561027b57600080fd5b5061028f61028a3660046139eb565b61078e565b60405161029c9190613a16565b60405180910390f35b3480156102b157600080fd5b506102c56102c0366004613b23565b61079f565b60405161029c9190613bae565b3480156102de57600080fd5b506102e761081c565b60405161029c9190613c12565b34801561030057600080fd5b5061031461030f366004613c23565b6108ae565b60405161029c9190613c5e565b34801561032d57600080fd5b5061034161033c366004613c80565b6108d5565b005b34801561034f57600080fd5b5061034161035e366004613c23565b610963565b34801561036f57600080fd5b5061034161037e366004613cbd565b610c28565b34801561038f57600080fd5b506102c561039e366004613c23565b60009081526007602052604090206001015490565b3480156103bf57600080fd5b506103416103ce366004613d03565b610c59565b3480156103df57600080fd5b506103416103ee366004613d03565b610c7e565b3480156103ff57600080fd5b506102c561040e366004613c23565b610cb0565b34801561041f57600080fd5b5061034161042e366004613cbd565b610d2c565b34801561043f57600080fd5b5061031461044e366004613c23565b610d47565b34801561045f57600080fd5b506102c561046e366004613d36565b610d7c565b34801561047f57600080fd5b506102c57fa49807205ce4d355092ef5a8a18f56e8913cf4a201fbe287825b095693c2177581565b3480156104b357600080fd5b506104c76104c2366004613d57565b610dc0565b60405161029c9190613ec0565b3480156104e057600080fd5b506102c5600b5481565b3480156104f657600080fd5b506102c5610505366004613c23565b61116b565b34801561051657600080fd5b5061028f610525366004613d03565b60009182526007602090815260408084206001600160a01b0393909316845291905290205460ff1690565b34801561055c57600080fd5b506102e76111e3565b34801561057157600080fd5b506102c5600c5481565b34801561058757600080fd5b506102c5600081565b34801561059c57600080fd5b506103416105ab366004613ee4565b6111f2565b3480156105bc57600080fd5b506105d06105cb366004613f69565b6111fd565b60405161029c9190614251565b3480156105e957600080fd5b506103416105f8366004613d36565b611989565b34801561060957600080fd5b50600d54610314906001600160a01b031681565b34801561062957600080fd5b50610341610638366004614262565b611a09565b34801561064957600080fd5b50610341610658366004614416565b611a41565b34801561066957600080fd5b506102e7610678366004613c23565b611b56565b34801561068957600080fd5b506102e7610698366004613c23565b611bf0565b3480156106a957600080fd5b506103416106b8366004613d03565b611bfb565b3480156106c957600080fd5b506106dd6106d8366004613c23565b611c20565b60405161029c919061450c565b6103416106f8366004613c23565b611dfc565b34801561070957600080fd5b50476102c5565b34801561071c57600080fd5b5061028f61072b36600461451d565b6001600160a01b03918216600090815260056020908152604080832093909416825291909152205460ff1690565b34801561076557600080fd5b5061076e611ec6565b60405161029c91906145a4565b6103416107893660046145b5565b6126ef565b600061079982612843565b92915050565b60007fa49807205ce4d355092ef5a8a18f56e8913cf4a201fbe287825b095693c217756107cb81612899565b6107d585856128a3565b60006107df612937565b905060006107ee828633612958565b90506107fc868883856129df565b6108063383612af4565b6108108286612b0e565b5091505b509392505050565b60606000805461082b906146c9565b80601f0160208091040260200160405190810160405280929190818152602001828054610857906146c9565b80156108a45780601f10610879576101008083540402835291602001916108a4565b820191906000526020600020905b81548152906001019060200180831161088757829003601f168201915b5050505050905090565b60006108b982612b5a565b506000908152600460205260409020546001600160a01b031690565b60006108e082610d47565b9050806001600160a01b0316836001600160a01b03160361091c5760405162461bcd60e51b81526004016109139061474c565b60405180910390fd5b336001600160a01b03821614806109385750610938813361072b565b6109545760405162461bcd60e51b8152600401610913906147b6565b61095e8383612b8e565b505050565b7fa49807205ce4d355092ef5a8a18f56e8913cf4a201fbe287825b095693c2177561098d81612899565b610995612c09565b600082815260106020526040812080546109ae906146c9565b80601f01602080910402602001604051908101604052809291908181526020018280546109da906146c9565b8015610a275780601f106109fc57610100808354040283529160200191610a27565b820191906000526020600020905b815481529060010190602001808311610a0a57829003601f168201915b50506040517f6352211e000000000000000000000000000000000000000000000000000000008152939450600093309350636352211e9250610a6e91508790600401613bae565b602060405180830381865afa158015610a8b573d6000803e3d6000fd5b505050506040513d601f19601f82011682018060405250810190610aaf91906147d1565b6040517f081812fc000000000000000000000000000000000000000000000000000000008152909150600090309063081812fc90610af1908890600401613bae565b602060405180830381865afa158015610b0e573d6000803e3d6000fd5b505050506040513d601f19601f82011682018060405250810190610b3291906147d1565b90506000835111610b555760405162461bcd60e51b81526004016109139061484c565b6001600160a01b0382163314610b7d5760405162461bcd60e51b815260040161091390614893565b6001600160a01b0381163014610ba55760405162461bcd60e51b8152600401610913906148d7565b6040517f23b872dd00000000000000000000000000000000000000000000000000000000815230906323b872dd90610be590339084908a906004016148e7565b600060405180830381600087803b158015610bff57600080fd5b505af1158015610c13573d6000803e3d6000fd5b50505050505050610c246001600855565b5050565b610c323382612c32565b610c4e5760405162461bcd60e51b815260040161091390614969565b61095e838383612cb1565b600082815260076020526040902060010154610c7481612899565b61095e8383612de6565b6001600160a01b0381163314610ca65760405162461bcd60e51b8152600401610913906149d3565b610c248282612e88565b60007fa49807205ce4d355092ef5a8a18f56e8913cf4a201fbe287825b095693c21775610cdc81612899565b600b548303610cfd5760405162461bcd60e51b815260040161091390614a3d565b60008311610d1d5760405162461bcd60e51b815260040161091390614aa7565b600b8390558291505b50919050565b61095e83838360405180602001604052806000815250611a09565b6000818152600260205260408120546001600160a01b0316806107995760405162461bcd60e51b815260040161091390614aeb565b60006001600160a01b038216610da45760405162461bcd60e51b815260040161091390614b55565b506001600160a01b031660009081526003602052604090205490565b6060600f82604051610dd29190614b87565b9081526040519081900360200190205460ff161515600114610e065760405162461bcd60e51b815260040161091390614bed565b6000600e6000610e1585612f0b565b81526020019081526020016000209050600081600b018054905067ffffffffffffffff811115610e4757610e47613a24565b604051908082528060200260200182016040528015610ec557816020015b610eb26040518060c001604052806000815260200160006001600160a01b03168152602001606081526020016000815260200160001515815260200160006001600160a01b031681525090565b815260200190600190039081610e655790505b5090506000805b600b84015481101561106f5783600b018181548110610eed57610eed614bfd565b600091825260209091206004600590920201015460ff1661105d5783600b018181548110610f1d57610f1d614bfd565b90600052602060002090600502016040518060c0016040529081600082015481526020016001820160009054906101000a90046001600160a01b03166001600160a01b03166001600160a01b03168152602001600282018054610f7f906146c9565b80601f0160208091040260200160405190810160405280929190818152602001828054610fab906146c9565b8015610ff85780601f10610fcd57610100808354040283529160200191610ff8565b820191906000526020600020905b815481529060010190602001808311610fdb57829003601f168201915b50505091835250506003820154602082015260049091015460ff81161515604083015261010090046001600160a01b0316606090910152835184908490811061104357611043614bfd565b6020026020010181905250818061105990614c29565b9250505b8061106781614c29565b915050610ecc565b5060008167ffffffffffffffff81111561108b5761108b613a24565b60405190808252806020026020018201604052801561110957816020015b6110f66040518060c001604052806000815260200160006001600160a01b03168152602001606081526020016000815260200160001515815260200160006001600160a01b031681525090565b8152602001906001900390816110a95790505b50905060005b828110156111615783818151811061112957611129614bfd565b602002602001015182828151811061114357611143614bfd565b6020026020010181905250808061115990614c29565b91505061110f565b5095945050505050565b60007fa49807205ce4d355092ef5a8a18f56e8913cf4a201fbe287825b095693c2177561119781612899565b600c5483036111b85760405162461bcd60e51b815260040161091390614c9d565b600083116111d85760405162461bcd60e51b815260040161091390614d07565b5050600c55600b5490565b60606001805461082b906146c9565b610c24338383612f82565b6112616040518061018001604052806000815260200160608152602001606081526020016060815260200160608152602001606081526020016060815260200160008152602001606081526020016060815260200160608152602001606081525090565b60005b60095481101561197057838360405161127e929190614d2a565b604080519182900382206000848152600e6020529190912090916112a59160010190614da9565b60405180910390201480156112db5750600f84846040516112c7929190614d2a565b9081526040519081900360200190205460ff165b1561195e57600e60008281526020019081526020016000206040518061018001604052908160008201548152602001600182018054611319906146c9565b80601f0160208091040260200160405190810160405280929190818152602001828054611345906146c9565b80156113925780601f1061136757610100808354040283529160200191611392565b820191906000526020600020905b81548152906001019060200180831161137557829003601f168201915b505050505081526020016002820180546113ab906146c9565b80601f01602080910402602001604051908101604052809291908181526020018280546113d7906146c9565b80156114245780601f106113f957610100808354040283529160200191611424565b820191906000526020600020905b81548152906001019060200180831161140757829003601f168201915b5050505050815260200160038201805461143d906146c9565b80601f0160208091040260200160405190810160405280929190818152602001828054611469906146c9565b80156114b65780601f1061148b576101008083540402835291602001916114b6565b820191906000526020600020905b81548152906001019060200180831161149957829003601f168201915b505050505081526020016004820180546114cf906146c9565b80601f01602080910402602001604051908101604052809291908181526020018280546114fb906146c9565b80156115485780601f1061151d57610100808354040283529160200191611548565b820191906000526020600020905b81548152906001019060200180831161152b57829003601f168201915b50505050508152602001600582018054611561906146c9565b80601f016020809104026020016040519081016040528092919081815260200182805461158d906146c9565b80156115da5780601f106115af576101008083540402835291602001916115da565b820191906000526020600020905b8154815290600101906020018083116115bd57829003601f168201915b505050505081526020016006820180546115f3906146c9565b80601f016020809104026020016040519081016040528092919081815260200182805461161f906146c9565b801561166c5780601f106116415761010080835404028352916020019161166c565b820191906000526020600020905b81548152906001019060200180831161164f57829003601f168201915b505050505081526020016007820154815260200160088201805480602002602001604051908101604052809291908181526020016000905b828210156117505783829060005260206000200180546116c3906146c9565b80601f01602080910402602001604051908101604052809291908181526020018280546116ef906146c9565b801561173c5780601f106117115761010080835404028352916020019161173c565b820191906000526020600020905b81548152906001019060200180831161171f57829003601f168201915b5050505050815260200190600101906116a4565b505050508152602001600982018054806020026020016040519081016040528092919081815260200182805480156117a757602002820191906000526020600020905b815481526020019060010190808311611793575b50505050508152602001600a820180548060200260200160405190810160405280929190818152602001828054801561180957602002820191906000526020600020905b81546001600160a01b031681526001909101906020018083116117eb575b50505050508152602001600b8201805480602002602001604051908101604052809291908181526020016000905b8282101561194e5760008481526020908190206040805160c081018252600586029092018054835260018101546001600160a01b0316938301939093526002830180549293929184019161188a906146c9565b80601f01602080910402602001604051908101604052809291908181526020018280546118b6906146c9565b80156119035780601f106118d857610100808354040283529160200191611903565b820191906000526020600020905b8154815290600101906020018083116118e657829003601f168201915b5050509183525050600382015460208083019190915260049092015460ff81161515604083015261010090046001600160a01b03166060909101529082526001929092019101611837565b5050505081525050915050610799565b8061196881614c29565b915050611264565b5060405162461bcd60e51b815260040161091390614e0f565b7fa49807205ce4d355092ef5a8a18f56e8913cf4a201fbe287825b095693c217756119b381612899565b6001600160a01b0382166119d95760405162461bcd60e51b815260040161091390614e53565b50600d805473ffffffffffffffffffffffffffffffffffffffff19166001600160a01b0392909216919091179055565b611a133383612c32565b611a2f5760405162461bcd60e51b815260040161091390614969565b611a3b84848484613024565b50505050565b7fa49807205ce4d355092ef5a8a18f56e8913cf4a201fbe287825b095693c21775611a6b81612899565b611a7586886128a3565b6000878152600e6020526040902060068101611a918782614f00565b506007810185905560005b8451811015611af75781600801858281518110611abb57611abb614bfd565b60209081029190910181015182546001810184556000938452919092200190611ae49082614f00565b5080611aef81614c29565b915050611a9c565b5060005b8351811015611b4b5781600901848281518110611b1a57611b1a614bfd565b6020908102919091018101518254600181018455600093845291909220015580611b4381614c29565b915050611afb565b505050505050505050565b60106020526000908152604090208054611b6f906146c9565b80601f0160208091040260200160405190810160405280929190818152602001828054611b9b906146c9565b8015611be85780601f10611bbd57610100808354040283529160200191611be8565b820191906000526020600020905b815481529060010190602001808311611bcb57829003601f168201915b505050505081565b606061079982613057565b600082815260076020526040902060010154611c1681612899565b61095e8383612e88565b611c6d6040518060c001604052806000815260200160006001600160a01b03168152602001606081526020016000815260200160001515815260200160006001600160a01b031681525090565b60005b600954811015611de3576000818152600e60205260408120905b600b820154811015611dce57600082600b018281548110611cad57611cad614bfd565b9060005260206000209060050201905085816000015403611dbb576040805160c0810182528254815260018301546001600160a01b03166020820152600283018054919284929084019190611d01906146c9565b80601f0160208091040260200160405190810160405280929190818152602001828054611d2d906146c9565b8015611d7a5780601f10611d4f57610100808354040283529160200191611d7a565b820191906000526020600020905b815481529060010190602001808311611d5d57829003601f168201915b50505091835250506003820154602082015260049091015460ff81161515604083015261010090046001600160a01b03166060909101529695505050505050565b5080611dc681614c29565b915050611c8a565b50508080611ddb90614c29565b915050611c70565b5060405162461bcd60e51b815260040161091390614ff7565b611e04612c09565b600081118015611e165750600a548111155b611e325760405162461bcd60e51b81526004016109139061503b565b6000611e3d82611c20565b9050600c543414611e605760405162461bcd60e51b81526004016109139061507f565b806080015115611e825760405162461bcd60e51b8152600401610913906150c3565b60016080820152600c54604051339180156108fc02916000818181858888f19350505050158015611eb7573d6000803e3d6000fd5b5050611ec36001600855565b50565b60606000805b600954811015611f3357600f600e6000838152602001908152602001600020600101604051611efb9190614da9565b9081526040519081900360200190205460ff1615611f215781611f1d81614c29565b9250505b80611f2b81614c29565b915050611ecc565b5060008167ffffffffffffffff811115611f4f57611f4f613a24565b604051908082528060200260200182016040528015611fe457816020015b611fd16040518061018001604052806000815260200160608152602001606081526020016060815260200160608152602001606081526020016060815260200160008152602001606081526020016060815260200160608152602001606081525090565b815260200190600190039081611f6d5790505b5090506000805b6009548110156126e657600f600e600083815260200190815260200160002060010160405161201a9190614da9565b9081526040519081900360200190205460ff16156126d457600e6000828152602001908152602001600020604051806101800160405290816000820154815260200160018201805461206b906146c9565b80601f0160208091040260200160405190810160405280929190818152602001828054612097906146c9565b80156120e45780601f106120b9576101008083540402835291602001916120e4565b820191906000526020600020905b8154815290600101906020018083116120c757829003601f168201915b505050505081526020016002820180546120fd906146c9565b80601f0160208091040260200160405190810160405280929190818152602001828054612129906146c9565b80156121765780601f1061214b57610100808354040283529160200191612176565b820191906000526020600020905b81548152906001019060200180831161215957829003601f168201915b5050505050815260200160038201805461218f906146c9565b80601f01602080910402602001604051908101604052809291908181526020018280546121bb906146c9565b80156122085780601f106121dd57610100808354040283529160200191612208565b820191906000526020600020905b8154815290600101906020018083116121eb57829003601f168201915b50505050508152602001600482018054612221906146c9565b80601f016020809104026020016040519081016040528092919081815260200182805461224d906146c9565b801561229a5780601f1061226f5761010080835404028352916020019161229a565b820191906000526020600020905b81548152906001019060200180831161227d57829003601f168201915b505050505081526020016005820180546122b3906146c9565b80601f01602080910402602001604051908101604052809291908181526020018280546122df906146c9565b801561232c5780601f106123015761010080835404028352916020019161232c565b820191906000526020600020905b81548152906001019060200180831161230f57829003601f168201915b50505050508152602001600682018054612345906146c9565b80601f0160208091040260200160405190810160405280929190818152602001828054612371906146c9565b80156123be5780601f10612393576101008083540402835291602001916123be565b820191906000526020600020905b8154815290600101906020018083116123a157829003601f168201915b505050505081526020016007820154815260200160088201805480602002602001604051908101604052809291908181526020016000905b828210156124a2578382906000526020600020018054612415906146c9565b80601f0160208091040260200160405190810160405280929190818152602001828054612441906146c9565b801561248e5780601f106124635761010080835404028352916020019161248e565b820191906000526020600020905b81548152906001019060200180831161247157829003601f168201915b5050505050815260200190600101906123f6565b505050508152602001600982018054806020026020016040519081016040528092919081815260200182805480156124f957602002820191906000526020600020905b8154815260200190600101908083116124e5575b50505050508152602001600a820180548060200260200160405190810160405280929190818152602001828054801561255b57602002820191906000526020600020905b81546001600160a01b0316815260019091019060200180831161253d575b50505050508152602001600b8201805480602002602001604051908101604052809291908181526020016000905b828210156126a05760008481526020908190206040805160c081018252600586029092018054835260018101546001600160a01b031693830193909352600283018054929392918401916125dc906146c9565b80601f0160208091040260200160405190810160405280929190818152602001828054612608906146c9565b80156126555780601f1061262a57610100808354040283529160200191612655565b820191906000526020600020905b81548152906001019060200180831161263857829003601f168201915b5050509183525050600382015460208083019190915260049092015460ff81161515604083015261010090046001600160a01b03166060909101529082526001929092019101612589565b50505050815250508383815181106126ba576126ba614bfd565b602002602001018190525081806126d090614c29565b9250505b806126de81614c29565b915050611feb565b50909392505050565b600b543410156127115760405162461bcd60e51b815260040161091390615107565b600f856040516127219190614b87565b9081526040519081900360200190205460ff16156127515760405162461bcd60e51b815260040161091390615171565b600061275b61315f565b6000818152600e6020526040902090915061277b8183898989898961317b565b600a8101805460018101825560009182526020822001805473ffffffffffffffffffffffffffffffffffffffff191633179055600d546040516001600160a01b0391909116913480156108fc02929091818181858888f193505050501580156127e8573d6000803e3d6000fd5b5080546040517f7ded05b164ec2ced8cf596bb84025643f14c847df65880be4072a38432341c6f9161283291600185019060028601906003870190600588019060048901906151f9565b60405180910390a150505050505050565b60007fffffffff0000000000000000000000000000000000000000000000000000000082167f7965db0b0000000000000000000000000000000000000000000000000000000014806107995750610799826131d2565b611ec381336132b5565b600f826040516128b39190614b87565b9081526040519081900360200190205460ff166128e25760405162461bcd60e51b815260040161091390614bed565b6000600e600083815260200190815260200160002090508280519060200120816001016040516129129190614da9565b60405180910390201461095e5760405162461bcd60e51b8152600401610913906152cf565b600080612943600a5490565b9050612953600a80546001019055565b919050565b6129a56040518060c001604052806000815260200160006001600160a01b03168152602001606081526020016000815260200160001515815260200160006001600160a01b031681525090565b506040805160c081018252938452306020850152830191909152600c546060830152600060808301526001600160a01b031660a082015290565b6000848152600e60209081526040808320600b810180546001808201835591865294849020875160059096020194855592860151928401805473ffffffffffffffffffffffffffffffffffffffff19166001600160a01b0390941693909317909255840151909184916002820190612a579082614f00565b506060820151600382015560808201516004909101805460a0909301516001600160a01b0316610100027fffffffffffffffffffffff0000000000000000000000000000000000000000ff921515929092167fffffffffffffffffffffff000000000000000000000000000000000000000000909316929092171790556000828152601060205260409020612aec8582614f00565b505050505050565b610c2482826040518060200160405280600081525061332a565b6000828152600260205260409020546001600160a01b0316612b425760405162461bcd60e51b815260040161091390615339565b600082815260066020526040902061095e8282614f00565b6000818152600260205260409020546001600160a01b0316611ec35760405162461bcd60e51b815260040161091390614aeb565b6000818152600460205260409020805473ffffffffffffffffffffffffffffffffffffffff19166001600160a01b0384169081179091558190612bd082610d47565b6001600160a01b03167f8c5be1e5ebec7d5bd14f71427d1e84f3dd0314c0f7b2291e5b200ac8c7c3b92560405160405180910390a45050565b600260085403612c2b5760405162461bcd60e51b81526004016109139061537d565b6002600855565b600080612c3e83610d47565b9050806001600160a01b0316846001600160a01b03161480612c8557506001600160a01b0380821660009081526005602090815260408083209388168352929052205460ff165b80612ca95750836001600160a01b0316612c9e846108ae565b6001600160a01b0316145b949350505050565b826001600160a01b0316612cc482610d47565b6001600160a01b031614612cea5760405162461bcd60e51b8152600401610913906153e7565b6001600160a01b038216612d105760405162461bcd60e51b815260040161091390615451565b826001600160a01b0316612d2382610d47565b6001600160a01b031614612d495760405162461bcd60e51b8152600401610913906153e7565b6000818152600460209081526040808320805473ffffffffffffffffffffffffffffffffffffffff199081169091556001600160a01b0387811680865260038552838620805460001901905590871680865283862080546001019055868652600290945282852080549092168417909155905184937fddf252ad1be2c89b69c2b068fc378daa952ba7f163c4a11628f55a4df523b3ef91a4505050565b60008281526007602090815260408083206001600160a01b038516845290915290205460ff16610c245760008281526007602090815260408083206001600160a01b03851684529091529020805460ff19166001179055612e443390565b6001600160a01b0316816001600160a01b0316837f2f8788117e7eff1d82e926ec794901d17c78024a50270940304540a733656f0d60405160405180910390a45050565b60008281526007602090815260408083206001600160a01b038516845290915290205460ff1615610c245760008281526007602090815260408083206001600160a01b0385168085529252808320805460ff1916905551339285917ff6391f5c32d9c69d2a47ea670b442974b53935d1edc7fd64eb21e047a839171b9190a45050565b6000805b600954811015612f69578280519060200120600e6000838152602001908152602001600020600101604051612f449190614da9565b604051809103902003612f575792915050565b80612f6181614c29565b915050612f0f565b5060405162461bcd60e51b815260040161091390615495565b816001600160a01b0316836001600160a01b031603612fb35760405162461bcd60e51b8152600401610913906154d9565b6001600160a01b0383811660008181526005602090815260408083209487168084529490915290819020805460ff1916851515179055517f17307eab39ab6107e8899845ad3d59bd9653f200f220920489ca2b5937696c3190613017908590613a16565b60405180910390a3505050565b61302f848484612cb1565b61303b8484848461335d565b611a3b5760405162461bcd60e51b815260040161091390615543565b606061306282612b5a565b6000828152600660205260408120805461307b906146c9565b80601f01602080910402602001604051908101604052809291908181526020018280546130a7906146c9565b80156130f45780601f106130c9576101008083540402835291602001916130f4565b820191906000526020600020905b8154815290600101906020018083116130d757829003601f168201915b50505050509050600061311260408051602081019091526000815290565b90508051600003613124575092915050565b81511561315657808260405160200161313e929190615553565b60405160208183030381529060405292505050919050565b612ca9846134a8565b60008061316b60095490565b9050612953600980546001019055565b8587556001870161318c8682614f00565b506002870161319b8582614f00565b50600387016131aa8482614f00565b50600587016131b98382614f00565b50600487016131c88282614f00565b5050505050505050565b60007fffffffff0000000000000000000000000000000000000000000000000000000082167f80ac58cd00000000000000000000000000000000000000000000000000000000148061326557507fffffffff0000000000000000000000000000000000000000000000000000000082167f5b5e139f00000000000000000000000000000000000000000000000000000000145b8061079957507f01ffc9a7000000000000000000000000000000000000000000000000000000007fffffffff00000000000000000000000000000000000000000000000000000000831614610799565b60008281526007602090815260408083206001600160a01b038516845290915290205460ff16610c24576132e88161351c565b6132f383602061352e565b60405160200161330492919061556b565b60408051601f198184030181529082905262461bcd60e51b825261091391600401613c12565b6133348383613727565b613341600084848461335d565b61095e5760405162461bcd60e51b815260040161091390615543565b60006001600160a01b0384163b1561349d576040517f150b7a020000000000000000000000000000000000000000000000000000000081526001600160a01b0385169063150b7a02906133ba9033908990889088906004016155cb565b6020604051808303816000875af19250505080156133f5575060408051601f3d908101601f191682019092526133f29181019061561a565b60015b613452573d808015613423576040519150601f19603f3d011682016040523d82523d6000602084013e613428565b606091505b50805160000361344a5760405162461bcd60e51b815260040161091390615543565b805181602001fd5b7fffffffff00000000000000000000000000000000000000000000000000000000167f150b7a0200000000000000000000000000000000000000000000000000000000149050612ca9565b506001949350505050565b60606134b382612b5a565b60006134ca60408051602081019091526000815290565b905060008151116134ea5760405180602001604052806000815250613515565b806134f48461382f565b604051602001613505929190615553565b6040516020818303038152906040525b9392505050565b60606107996001600160a01b03831660145b6060600061353d83600261563b565b61354890600261565a565b67ffffffffffffffff81111561356057613560613a24565b6040519080825280601f01601f19166020018201604052801561358a576020820181803683370190505b5090507f3000000000000000000000000000000000000000000000000000000000000000816000815181106135c1576135c1614bfd565b60200101907effffffffffffffffffffffffffffffffffffffffffffffffffffffffffffff1916908160001a9053507f78000000000000000000000000000000000000000000000000000000000000008160018151811061362457613624614bfd565b60200101907effffffffffffffffffffffffffffffffffffffffffffffffffffffffffffff1916908160001a905350600061366084600261563b565b61366b90600161565a565b90505b6001811115613708577f303132333435363738396162636465660000000000000000000000000000000085600f16601081106136ac576136ac614bfd565b1a60f81b8282815181106136c2576136c2614bfd565b60200101907effffffffffffffffffffffffffffffffffffffffffffffffffffffffffffff1916908160001a90535060049490941c936137018161566d565b905061366e565b5083156135155760405162461bcd60e51b8152600401610913906156b6565b6001600160a01b03821661374d5760405162461bcd60e51b8152600401610913906156f8565b6000818152600260205260409020546001600160a01b0316156137825760405162461bcd60e51b81526004016109139061573c565b6000818152600260205260409020546001600160a01b0316156137b75760405162461bcd60e51b81526004016109139061573c565b6001600160a01b0382166000818152600360209081526040808320805460010190558483526002909152808220805473ffffffffffffffffffffffffffffffffffffffff19168417905551839291907fddf252ad1be2c89b69c2b068fc378daa952ba7f163c4a11628f55a4df523b3ef908290a45050565b6060600061383c836138cf565b600101905060008167ffffffffffffffff81111561385c5761385c613a24565b6040519080825280601f01601f191660200182016040528015613886576020820181803683370190505b5090508181016020015b600019017f3031323334353637383961626364656600000000000000000000000000000000600a86061a8153600a850494508461389057509392505050565b6000807a184f03e93ff9f4daa797ed6e38ed64bf6a1f0100000000000000008310613918577a184f03e93ff9f4daa797ed6e38ed64bf6a1f010000000000000000830492506040015b6d04ee2d6d415b85acef81000000008310613944576d04ee2d6d415b85acef8100000000830492506020015b662386f26fc10000831061396257662386f26fc10000830492506010015b6305f5e100831061397a576305f5e100830492506008015b612710831061398e57612710830492506004015b606483106139a0576064830492506002015b600a83106107995760010192915050565b7fffffffff0000000000000000000000000000000000000000000000000000000081165b8114611ec357600080fd5b8035610799816139b1565b600060208284031215613a0057613a00600080fd5b6000612ca984846139e0565b8015155b82525050565b602081016107998284613a0c565b634e487b7160e01b600052604160045260246000fd5b601f19601f830116810181811067ffffffffffffffff82111715613a6057613a60613a24565b6040525050565b6000613a7260405190565b90506129538282613a3a565b600067ffffffffffffffff821115613a9857613a98613a24565b601f19601f83011660200192915050565b82818337506000910152565b6000613ac8613ac384613a7e565b613a67565b905082815260208101848484011115613ae357613ae3600080fd5b610814848285613aa9565b600082601f830112613b0257613b02600080fd5b8135612ca9848260208601613ab5565b806139d5565b803561079981613b12565b600080600060608486031215613b3b57613b3b600080fd5b833567ffffffffffffffff811115613b5557613b55600080fd5b613b6186828701613aee565b9350506020613b7286828701613b18565b925050604084013567ffffffffffffffff811115613b9257613b92600080fd5b613b9e86828701613aee565b9150509250925092565b80613a10565b602081016107998284613ba8565b60005b83811015613bd7578181015183820152602001613bbf565b50506000910152565b6000613bea825190565b808452602084019350613c01818560208601613bbc565b601f01601f19169290920192915050565b602080825281016135158184613be0565b600060208284031215613c3857613c38600080fd5b6000612ca98484613b18565b60006001600160a01b038216610799565b613a1081613c44565b602081016107998284613c55565b6139d581613c44565b803561079981613c6c565b60008060408385031215613c9657613c96600080fd5b6000613ca28585613c75565b9250506020613cb385828601613b18565b9150509250929050565b600080600060608486031215613cd557613cd5600080fd5b6000613ce18686613c75565b9350506020613cf286828701613c75565b9250506040613b9e86828701613b18565b60008060408385031215613d1957613d19600080fd5b6000613d258585613b18565b9250506020613cb385828601613c75565b600060208284031215613d4b57613d4b600080fd5b6000612ca98484613c75565b600060208284031215613d6c57613d6c600080fd5b813567ffffffffffffffff811115613d8657613d86600080fd5b612ca984828501613aee565b60006107996001600160a01b038316613da9565b90565b6001600160a01b031690565b600061079982613d92565b600061079982613db5565b613a1081613dc0565b805160009060c0840190613de88582613ba8565b506020830151613dfb6020860182613dcb565b5060408301518482036040860152613e138282613be0565b9150506060830151613e286060860182613ba8565b506080830151613e3b6080860182613a0c565b5060a083015161081460a0860182613c55565b60006135158383613dd4565b6000613e64825190565b80845260208401935083602082028501613e7e8560200190565b8060005b85811015613eb35784840389528151613e9b8582613e4e565b94506020830160209a909a0199925050600101613e82565b5091979650505050505050565b602080825281016135158184613e5a565b8015156139d5565b803561079981613ed1565b60008060408385031215613efa57613efa600080fd5b6000613f068585613c75565b9250506020613cb385828601613ed9565b60008083601f840112613f2c57613f2c600080fd5b50813567ffffffffffffffff811115613f4757613f47600080fd5b602083019150836001820283011115613f6257613f62600080fd5b9250929050565b60008060208385031215613f7f57613f7f600080fd5b823567ffffffffffffffff811115613f9957613f99600080fd5b613fa585828601613f17565b92509250509250929050565b60006135158383613be0565b6000613fc7825190565b80845260208401935083602082028501613fe18560200190565b8060005b85811015613eb35784840389528151613ffe8582613fb1565b94506020830160209a909a0199925050600101613fe5565b60006140228383613ba8565b505060200190565b6000614034825190565b80845260209384019383018060005b838110156140685781516140578882614016565b975060208301925050600101614043565b509495945050505050565b60006140228383613c55565b6000614089825190565b80845260209384019383018060005b838110156140685781516140ac8882614073565b975060208301925050600101614098565b60006140c7825190565b808452602084019350836020820285016140e18560200190565b8060005b85811015613eb357848403895281516140fe8582613e4e565b94506020830160209a909a01999250506001016140e5565b805160009061018084019061412b8582613ba8565b50602083015184820360208601526141438282613be0565b9150506040830151848203604086015261415d8282613be0565b915050606083015184820360608601526141778282613be0565b915050608083015184820360808601526141918282613be0565b91505060a083015184820360a08601526141ab8282613be0565b91505060c083015184820360c08601526141c58282613be0565b91505060e08301516141da60e0860182613ba8565b506101008301518482036101008601526141f48282613fbd565b915050610120830151848203610120860152614210828261402a565b91505061014083015184820361014086015261422c828261407f565b91505061016083015184820361016086015261424882826140bd565b95945050505050565b602080825281016135158184614116565b6000806000806080858703121561427b5761427b600080fd5b60006142878787613c75565b945050602061429887828801613c75565b93505060406142a987828801613b18565b925050606085013567ffffffffffffffff8111156142c9576142c9600080fd5b6142d587828801613aee565b91505092959194509250565b600067ffffffffffffffff8211156142fb576142fb613a24565b5060209081020190565b6000614313613ac3846142e1565b8381529050602080820190840283018581111561433257614332600080fd5b835b8181101561437357803567ffffffffffffffff81111561435657614356600080fd5b8086016143638982613aee565b8552505060209283019201614334565b5050509392505050565b600082601f83011261439157614391600080fd5b8135612ca9848260208601614305565b60006143af613ac3846142e1565b838152905060208082019084028301858111156143ce576143ce600080fd5b835b8181101561437357806143e38882613b18565b845250602092830192016143d0565b600082601f83011261440657614406600080fd5b8135612ca98482602086016143a1565b60008060008060008060c0878903121561443257614432600080fd5b600061443e8989613b18565b965050602087013567ffffffffffffffff81111561445e5761445e600080fd5b61446a89828a01613aee565b955050604087013567ffffffffffffffff81111561448a5761448a600080fd5b61449689828a01613aee565b94505060606144a789828a01613b18565b935050608087013567ffffffffffffffff8111156144c7576144c7600080fd5b6144d389828a0161437d565b92505060a087013567ffffffffffffffff8111156144f3576144f3600080fd5b6144ff89828a016143f2565b9150509295509295509295565b602080825281016135158184613dd4565b6000806040838503121561453357614533600080fd5b6000613d258585613c75565b60006135158383614116565b6000614555825190565b8084526020840193508360208202850161456f8560200190565b8060005b85811015613eb3578484038952815161458c858261453f565b94506020830160209a909a0199925050600101614573565b60208082528101613515818461454b565b600080600080600060a086880312156145d0576145d0600080fd5b853567ffffffffffffffff8111156145ea576145ea600080fd5b6145f688828901613aee565b955050602086013567ffffffffffffffff81111561461657614616600080fd5b61462288828901613aee565b945050604086013567ffffffffffffffff81111561464257614642600080fd5b61464e88828901613aee565b935050606086013567ffffffffffffffff81111561466e5761466e600080fd5b61467a88828901613aee565b925050608086013567ffffffffffffffff81111561469a5761469a600080fd5b6146a688828901613aee565b9150509295509295909350565b634e487b7160e01b600052602260045260246000fd5b6002810460018216806146dd57607f821691505b602082108103610d2657610d266146b3565b602181526000602082017f4552433732313a20617070726f76616c20746f2063757272656e74206f776e6581527f7200000000000000000000000000000000000000000000000000000000000000602082015291505b5060400190565b60208082528101610799816146ef565b603d81526000602082017f4552433732313a20617070726f76652063616c6c6572206973206e6f7420746f81527f6b656e206f776e6572206f7220617070726f76656420666f7220616c6c00000060208201529150614745565b602080825281016107998161475c565b805161079981613c6c565b6000602082840312156147e6576147e6600080fd5b6000612ca984846147c6565b603581526000602082017f536174656c6c69746520696d61676520646f65736e27742062656c6f6e67207481527f6f20616e792070726f74656374656420617265612e000000000000000000000060208201529150614745565b60208082528101610799816147f2565b601981526000602082017f546865206f776e65722069736e2774204e4654206f776e657200000000000000815291505b5060200190565b602080825281016107998161485c565b601b81526000602082017f546865204e46542069736e277420617070726f766564207965742e00000000008152915061488c565b60208082528101610799816148a3565b606081016148f58286613c55565b6149026020830185613c55565b612ca96040830184613ba8565b602d81526000602082017f4552433732313a2063616c6c6572206973206e6f7420746f6b656e206f776e6581527f72206f7220617070726f7665640000000000000000000000000000000000000060208201529150614745565b602080825281016107998161490f565b602f81526000602082017f416363657373436f6e74726f6c3a2063616e206f6e6c792072656e6f756e636581527f20726f6c657320666f722073656c66000000000000000000000000000000000060208201529150614745565b6020808252810161079981614979565b602c81526000602082017f546865206e657720646f6e6174696f6e2076616c7565206d757374206e6f742081527f6265207468652073616d652e000000000000000000000000000000000000000060208201529150614745565b60208082528101610799816149e3565b603281526000602082017f546865206e657720646f6e6174696f6e2076616c7565206d757374206265206481527f6966666572656e74206e6f6e2d7a65726f2e000000000000000000000000000060208201529150614745565b6020808252810161079981614a4d565b601881526000602082017f4552433732313a20696e76616c696420746f6b656e20494400000000000000008152915061488c565b6020808252810161079981614ab7565b602981526000602082017f4552433732313a2061646472657373207a65726f206973206e6f74206120766181527f6c6964206f776e6572000000000000000000000000000000000000000000000060208201529150614745565b6020808252810161079981614afb565b6000614b6f825190565b614b7d818560208601613bbc565b9290920192915050565b60006135158284614b65565b602581526000602082017f50726f74656374656420617265612069736e2774206265696e67206d6f6e697481527f6f7265642e00000000000000000000000000000000000000000000000000000060208201529150614745565b6020808252810161079981614b93565b634e487b7160e01b600052603260045260246000fd5b634e487b7160e01b600052601160045260246000fd5b60006000198203614c3c57614c3c614c13565b5060010190565b602881526000602082017f546865206e6577204e465473207072696365206d757374206e6f74206265207481527f68652073616d652e00000000000000000000000000000000000000000000000060208201529150614745565b6020808252810161079981614c43565b602e81526000602082017f546865206e6577204e465473207072696365206d75737420626520646966666581527f72656e74206e6f6e2d7a65726f2e00000000000000000000000000000000000060208201529150614745565b6020808252810161079981614cad565b6000614d24838584613aa9565b50500190565b6000612ca9828486614d17565b60008154614d44816146c9565b600182168015614d5b5760018114614d7057614da0565b60ff1983168652811515820286019350614da0565b60008581526020902060005b83811015614d9857815488820152600190910190602001614d7c565b838801955050505b50505092915050565b60006135158284614d37565b602181526000602082017f4e6f206d61746368696e672070726f746563746564206172656120666f756e6481527f2e0000000000000000000000000000000000000000000000000000000000000060208201529150614745565b6020808252810161079981614db5565b601581526000602082017f496e76616c69642072656c6179206164647265737300000000000000000000008152915061488c565b6020808252810161079981614e1f565b6000610799613da68381565b614e7883614e63565b81546008840282811b60001990911b908116901990911617825550505050565b600061095e818484614e6f565b81811015610c2457614eb8600082614e98565b600101614ea5565b601f82111561095e576000818152602090206020601f85010481016020851015614ee75750805b614ef96020601f860104830182614ea5565b5050505050565b815167ffffffffffffffff811115614f1a57614f1a613a24565b614f2482546146c9565b614f2f828285614ec0565b6020601f831160018114614f635760008415614f4b5750858201515b600019600886021c1981166002860217865550612aec565b600085815260208120601f198616915b82811015614f935788850151825560209485019460019092019101614f73565b86831015614faf5784890151600019601f89166008021c191682555b600160028802018855505050505050505050565b601881526000602082017f536174656c6c697465496d616765206e6f7420666f756e6400000000000000008152915061488c565b6020808252810161079981614fc3565b601e81526000602082017f536174656c6c69746520696d61676520646f65736e27742065786973742e00008152915061488c565b6020808252810161079981615007565b601381526000602082017f496e73756666696369656e742066756e64732e000000000000000000000000008152915061488c565b602080825281016107998161504b565b601d81526000602082017f536174656c6c69746520496d61676520616c726561647920736f6c642e0000008152915061488c565b602080825281016107998161508f565b601281526000602082017f496e73756666696369656e742066756e647300000000000000000000000000008152915061488c565b60208082528101610799816150d3565b602a81526000602082017f50726f746563746564206172656120697320616c7265616479206265696e672081527f6d6f6e69746f7265642e0000000000000000000000000000000000000000000060208201529150614745565b6020808252810161079981615117565b6000815461518e816146c9565b8085526020850194506001821680156151ae57600181146151c457614da0565b60ff198316865260208215150286019350614da0565b60008581526020902060005b838110156151ec578154888201526001909101906020016151d0565b9096019695505050505050565b60c081016152078289613ba8565b81810360208301526152198188615181565b9050818103604083015261522d8187615181565b905081810360608301526152418186615181565b905081810360808301526152558185615181565b905081810360a08301526152698184615181565b98975050505050505050565b602481526000602082017f54686579206172656e2774207468652073616d652070726f746563746564206181527f7265612e0000000000000000000000000000000000000000000000000000000060208201529150614745565b6020808252810161079981615275565b602e81526000602082017f45524337323155524953746f726167653a2055524920736574206f66206e6f6e81527f6578697374656e7420746f6b656e00000000000000000000000000000000000060208201529150614745565b60208082528101610799816152df565b601f81526000602082017f5265656e7472616e637947756172643a207265656e7472616e742063616c6c008152915061488c565b6020808252810161079981615349565b602581526000602082017f4552433732313a207472616e736665722066726f6d20696e636f72726563742081527f6f776e657200000000000000000000000000000000000000000000000000000060208201529150614745565b602080825281016107998161538d565b602481526000602082017f4552433732313a207472616e7366657220746f20746865207a65726f2061646481527f726573730000000000000000000000000000000000000000000000000000000060208201529150614745565b60208082528101610799816153f7565b601981526000602082017f50726f7465637465642061726561206e6f7420666f756e642e000000000000008152915061488c565b6020808252810161079981615461565b601981526000602082017f4552433732313a20617070726f766520746f2063616c6c6572000000000000008152915061488c565b60208082528101610799816154a5565b603281526000602082017f4552433732313a207472616e7366657220746f206e6f6e20455243373231526581527f63656976657220696d706c656d656e746572000000000000000000000000000060208201529150614745565b60208082528101610799816154e9565b600061555f8285614b65565b9150612ca98284614b65565b7f416363657373436f6e74726f6c3a206163636f756e74200000000000000000008152601701600061559d8285614b65565b7f206973206d697373696e6720726f6c6520000000000000000000000000000000815291506011820161555f565b608081016155d98287613c55565b6155e66020830186613c55565b6155f36040830185613ba8565b81810360608301526156058184613be0565b9695505050505050565b8051610799816139b1565b60006020828403121561562f5761562f600080fd5b6000612ca9848461560f565b81810280821583820485141761565357615653614c13565b5092915050565b8082018082111561079957610799614c13565b60008161567c5761567c614c13565b506000190190565b60208082527f537472696e67733a20686578206c656e67746820696e73756666696369656e749101908152600061488c565b6020808252810161079981615684565b60208082527f4552433732313a206d696e7420746f20746865207a65726f20616464726573739101908152600061488c565b60208082528101610799816156c6565b601c81526000602082017f4552433732313a20746f6b656e20616c7265616479206d696e746564000000008152915061488c565b602080825281016107998161570856fea26469706673582212202f7281c693e15c5c4ec55b695e0a251b6024247c61beb48c235ad8d2687171b964736f6c63430008110033",
	"linkReferences": {},
	"deployedLinkReferences": {}
}