{
	"_format": "hh-sol-artifact-1",
	"contractName": "Biorbit",
	"sourceName": "contracts/biorbit/Biorbit.sol",
	"address": "0xb6F092234f55b0dF3e653912eC980F8a2B6D2F8A",
	"abi": [
		{
			"inputs": [
				{
					"internalType": "address",
					"name": "_relay",
					"type": "address"
				}
			],
			"stateMutability": "nonpayable",
			"type": "constructor"
		},
		{
			"anonymous": false,
			"inputs": [
				{
					"indexed": true,
					"internalType": "address",
					"name": "owner",
					"type": "address"
				},
				{
					"indexed": true,
					"internalType": "address",
					"name": "approved",
					"type": "address"
				},
				{
					"indexed": true,
					"internalType": "uint256",
					"name": "tokenId",
					"type": "uint256"
				}
			],
			"name": "Approval",
			"type": "event"
		},
		{
			"anonymous": false,
			"inputs": [
				{
					"indexed": true,
					"internalType": "address",
					"name": "owner",
					"type": "address"
				},
				{
					"indexed": true,
					"internalType": "address",
					"name": "operator",
					"type": "address"
				},
				{
					"indexed": false,
					"internalType": "bool",
					"name": "approved",
					"type": "bool"
				}
			],
			"name": "ApprovalForAll",
			"type": "event"
		},
		{
			"anonymous": false,
			"inputs": [
				{
					"indexed": false,
					"internalType": "uint256",
					"name": "",
					"type": "uint256"
				},
				{
					"indexed": false,
					"internalType": "string",
					"name": "",
					"type": "string"
				},
				{
					"indexed": false,
					"internalType": "string",
					"name": "",
					"type": "string"
				}
			],
			"name": "ProtectedAreaCreated",
			"type": "event"
		},
		{
			"anonymous": false,
			"inputs": [
				{
					"indexed": true,
					"internalType": "bytes32",
					"name": "role",
					"type": "bytes32"
				},
				{
					"indexed": true,
					"internalType": "bytes32",
					"name": "previousAdminRole",
					"type": "bytes32"
				},
				{
					"indexed": true,
					"internalType": "bytes32",
					"name": "newAdminRole",
					"type": "bytes32"
				}
			],
			"name": "RoleAdminChanged",
			"type": "event"
		},
		{
			"anonymous": false,
			"inputs": [
				{
					"indexed": true,
					"internalType": "bytes32",
					"name": "role",
					"type": "bytes32"
				},
				{
					"indexed": true,
					"internalType": "address",
					"name": "account",
					"type": "address"
				},
				{
					"indexed": true,
					"internalType": "address",
					"name": "sender",
					"type": "address"
				}
			],
			"name": "RoleGranted",
			"type": "event"
		},
		{
			"anonymous": false,
			"inputs": [
				{
					"indexed": true,
					"internalType": "bytes32",
					"name": "role",
					"type": "bytes32"
				},
				{
					"indexed": true,
					"internalType": "address",
					"name": "account",
					"type": "address"
				},
				{
					"indexed": true,
					"internalType": "address",
					"name": "sender",
					"type": "address"
				}
			],
			"name": "RoleRevoked",
			"type": "event"
		},
		{
			"anonymous": false,
			"inputs": [
				{
					"indexed": true,
					"internalType": "address",
					"name": "from",
					"type": "address"
				},
				{
					"indexed": true,
					"internalType": "address",
					"name": "to",
					"type": "address"
				},
				{
					"indexed": true,
					"internalType": "uint256",
					"name": "tokenId",
					"type": "uint256"
				}
			],
			"name": "Transfer",
			"type": "event"
		},
		{
			"inputs": [],
			"name": "ADMIN_ROLE",
			"outputs": [
				{
					"internalType": "bytes32",
					"name": "",
					"type": "bytes32"
				}
			],
			"stateMutability": "view",
			"type": "function"
		},
		{
			"inputs": [],
			"name": "DEFAULT_ADMIN_ROLE",
			"outputs": [
				{
					"internalType": "bytes32",
					"name": "",
					"type": "bytes32"
				}
			],
			"stateMutability": "view",
			"type": "function"
		},
		{
			"inputs": [
				{
					"internalType": "address",
					"name": "to",
					"type": "address"
				},
				{
					"internalType": "uint256",
					"name": "tokenId",
					"type": "uint256"
				}
			],
			"name": "approve",
			"outputs": [],
			"stateMutability": "nonpayable",
			"type": "function"
		},
		{
			"inputs": [
				{
					"internalType": "address",
					"name": "owner",
					"type": "address"
				}
			],
			"name": "balanceOf",
			"outputs": [
				{
					"internalType": "uint256",
					"name": "",
					"type": "uint256"
				}
			],
			"stateMutability": "view",
			"type": "function"
		},
		{
			"inputs": [
				{
					"internalType": "uint256",
					"name": "_satelliteImageId",
					"type": "uint256"
				},
				{
					"internalType": "string",
					"name": "_protectedAreaName",
					"type": "string"
				}
			],
			"name": "buySatelliteImage",
			"outputs": [],
			"stateMutability": "payable",
			"type": "function"
		},
		{
			"inputs": [],
			"name": "donation",
			"outputs": [
				{
					"internalType": "uint256",
					"name": "",
					"type": "uint256"
				}
			],
			"stateMutability": "view",
			"type": "function"
		},
		{
			"inputs": [
				{
					"internalType": "uint256",
					"name": "tokenId",
					"type": "uint256"
				}
			],
			"name": "getApproved",
			"outputs": [
				{
					"internalType": "address",
					"name": "",
					"type": "address"
				}
			],
			"stateMutability": "view",
			"type": "function"
		},
		{
			"inputs": [
				{
					"internalType": "string",
					"name": "name",
					"type": "string"
				}
			],
			"name": "getProtectedAreaByName",
			"outputs": [
				{
					"components": [
						{
							"internalType": "uint256",
							"name": "id",
							"type": "uint256"
						},
						{
							"internalType": "string",
							"name": "name",
							"type": "string"
						},
						{
							"internalType": "string",
							"name": "footprint",
							"type": "string"
						},
						{
							"internalType": "string",
							"name": "lastDetectionDate",
							"type": "string"
						},
						{
							"internalType": "string",
							"name": "totalExtension",
							"type": "string"
						},
						{
							"internalType": "string[]",
							"name": "detectionDates",
							"type": "string[]"
						},
						{
							"internalType": "string[]",
							"name": "forestCoverExtensions",
							"type": "string[]"
						},
						{
							"internalType": "address[]",
							"name": "donates",
							"type": "address[]"
						},
						{
							"components": [
								{
									"internalType": "uint256",
									"name": "id",
									"type": "uint256"
								},
								{
									"internalType": "contract IERC721",
									"name": "nft",
									"type": "address"
								},
								{
									"internalType": "string",
									"name": "uri",
									"type": "string"
								},
								{
									"internalType": "uint256",
									"name": "price",
									"type": "uint256"
								},
								{
									"internalType": "bool",
									"name": "sold",
									"type": "bool"
								},
								{
									"internalType": "address payable",
									"name": "seller",
									"type": "address"
								}
							],
							"internalType": "struct Biorbit.SatelliteImage[]",
							"name": "satelliteImages",
							"type": "tuple[]"
						}
					],
					"internalType": "struct Biorbit.ProtectedArea",
					"name": "",
					"type": "tuple"
				}
			],
			"stateMutability": "view",
			"type": "function"
		},
		{
			"inputs": [],
			"name": "getProtectedAreasByUsedNames",
			"outputs": [
				{
					"components": [
						{
							"internalType": "uint256",
							"name": "id",
							"type": "uint256"
						},
						{
							"internalType": "string",
							"name": "name",
							"type": "string"
						},
						{
							"internalType": "string",
							"name": "footprint",
							"type": "string"
						},
						{
							"internalType": "string",
							"name": "lastDetectionDate",
							"type": "string"
						},
						{
							"internalType": "string",
							"name": "totalExtension",
							"type": "string"
						},
						{
							"internalType": "string[]",
							"name": "detectionDates",
							"type": "string[]"
						},
						{
							"internalType": "string[]",
							"name": "forestCoverExtensions",
							"type": "string[]"
						},
						{
							"internalType": "address[]",
							"name": "donates",
							"type": "address[]"
						},
						{
							"components": [
								{
									"internalType": "uint256",
									"name": "id",
									"type": "uint256"
								},
								{
									"internalType": "contract IERC721",
									"name": "nft",
									"type": "address"
								},
								{
									"internalType": "string",
									"name": "uri",
									"type": "string"
								},
								{
									"internalType": "uint256",
									"name": "price",
									"type": "uint256"
								},
								{
									"internalType": "bool",
									"name": "sold",
									"type": "bool"
								},
								{
									"internalType": "address payable",
									"name": "seller",
									"type": "address"
								}
							],
							"internalType": "struct Biorbit.SatelliteImage[]",
							"name": "satelliteImages",
							"type": "tuple[]"
						}
					],
					"internalType": "struct Biorbit.ProtectedArea[]",
					"name": "",
					"type": "tuple[]"
				}
			],
			"stateMutability": "view",
			"type": "function"
		},
		{
			"inputs": [
				{
					"internalType": "bytes32",
					"name": "role",
					"type": "bytes32"
				}
			],
			"name": "getRoleAdmin",
			"outputs": [
				{
					"internalType": "bytes32",
					"name": "",
					"type": "bytes32"
				}
			],
			"stateMutability": "view",
			"type": "function"
		},
		{
			"inputs": [
				{
					"internalType": "uint256",
					"name": "_satelliteImageId",
					"type": "uint256"
				}
			],
			"name": "getSatelliteImage",
			"outputs": [
				{
					"components": [
						{
							"internalType": "uint256",
							"name": "id",
							"type": "uint256"
						},
						{
							"internalType": "contract IERC721",
							"name": "nft",
							"type": "address"
						},
						{
							"internalType": "string",
							"name": "uri",
							"type": "string"
						},
						{
							"internalType": "uint256",
							"name": "price",
							"type": "uint256"
						},
						{
							"internalType": "bool",
							"name": "sold",
							"type": "bool"
						},
						{
							"internalType": "address payable",
							"name": "seller",
							"type": "address"
						}
					],
					"internalType": "struct Biorbit.SatelliteImage",
					"name": "",
					"type": "tuple"
				}
			],
			"stateMutability": "view",
			"type": "function"
		},
		{
			"inputs": [
				{
					"internalType": "string",
					"name": "_protectedAreaName",
					"type": "string"
				}
			],
			"name": "getSoldSatelliteImagesByProtectedArea",
			"outputs": [
				{
					"components": [
						{
							"internalType": "uint256",
							"name": "id",
							"type": "uint256"
						},
						{
							"internalType": "contract IERC721",
							"name": "nft",
							"type": "address"
						},
						{
							"internalType": "string",
							"name": "uri",
							"type": "string"
						},
						{
							"internalType": "uint256",
							"name": "price",
							"type": "uint256"
						},
						{
							"internalType": "bool",
							"name": "sold",
							"type": "bool"
						},
						{
							"internalType": "address payable",
							"name": "seller",
							"type": "address"
						}
					],
					"internalType": "struct Biorbit.SatelliteImage[]",
					"name": "",
					"type": "tuple[]"
				}
			],
			"stateMutability": "view",
			"type": "function"
		},
		{
			"inputs": [
				{
					"internalType": "bytes32",
					"name": "role",
					"type": "bytes32"
				},
				{
					"internalType": "address",
					"name": "account",
					"type": "address"
				}
			],
			"name": "grantRole",
			"outputs": [],
			"stateMutability": "nonpayable",
			"type": "function"
		},
		{
			"inputs": [
				{
					"internalType": "bytes32",
					"name": "role",
					"type": "bytes32"
				},
				{
					"internalType": "address",
					"name": "account",
					"type": "address"
				}
			],
			"name": "hasRole",
			"outputs": [
				{
					"internalType": "bool",
					"name": "",
					"type": "bool"
				}
			],
			"stateMutability": "view",
			"type": "function"
		},
		{
			"inputs": [
				{
					"internalType": "address",
					"name": "owner",
					"type": "address"
				},
				{
					"internalType": "address",
					"name": "operator",
					"type": "address"
				}
			],
			"name": "isApprovedForAll",
			"outputs": [
				{
					"internalType": "bool",
					"name": "",
					"type": "bool"
				}
			],
			"stateMutability": "view",
			"type": "function"
		},
		{
			"inputs": [
				{
					"internalType": "uint256",
					"name": "_protectedAreaId",
					"type": "uint256"
				},
				{
					"internalType": "string",
					"name": "_protectedAreaName",
					"type": "string"
				},
				{
					"internalType": "string",
					"name": "_protectedAreaURI",
					"type": "string"
				}
			],
			"name": "mint",
			"outputs": [
				{
					"internalType": "uint256",
					"name": "",
					"type": "uint256"
				}
			],
			"stateMutability": "nonpayable",
			"type": "function"
		},
		{
			"inputs": [
				{
					"internalType": "string",
					"name": "_name",
					"type": "string"
				},
				{
					"internalType": "string",
					"name": "_footprint",
					"type": "string"
				}
			],
			"name": "monitorProtectedArea",
			"outputs": [],
			"stateMutability": "payable",
			"type": "function"
		},
		{
			"inputs": [],
			"name": "name",
			"outputs": [
				{
					"internalType": "string",
					"name": "",
					"type": "string"
				}
			],
			"stateMutability": "view",
			"type": "function"
		},
		{
			"inputs": [
				{
					"internalType": "uint256",
					"name": "tokenId",
					"type": "uint256"
				}
			],
			"name": "ownerOf",
			"outputs": [
				{
					"internalType": "address",
					"name": "",
					"type": "address"
				}
			],
			"stateMutability": "view",
			"type": "function"
		},
		{
			"inputs": [],
			"name": "price",
			"outputs": [
				{
					"internalType": "uint256",
					"name": "",
					"type": "uint256"
				}
			],
			"stateMutability": "view",
			"type": "function"
		},
		{
			"inputs": [],
			"name": "protectAreaIdCounter",
			"outputs": [
				{
					"internalType": "uint256",
					"name": "_value",
					"type": "uint256"
				}
			],
			"stateMutability": "view",
			"type": "function"
		},
		{
			"inputs": [],
			"name": "relay",
			"outputs": [
				{
					"internalType": "address",
					"name": "",
					"type": "address"
				}
			],
			"stateMutability": "view",
			"type": "function"
		},
		{
			"inputs": [
				{
					"internalType": "bytes32",
					"name": "role",
					"type": "bytes32"
				},
				{
					"internalType": "address",
					"name": "account",
					"type": "address"
				}
			],
			"name": "renounceRole",
			"outputs": [],
			"stateMutability": "nonpayable",
			"type": "function"
		},
		{
			"inputs": [
				{
					"internalType": "bytes32",
					"name": "role",
					"type": "bytes32"
				},
				{
					"internalType": "address",
					"name": "account",
					"type": "address"
				}
			],
			"name": "revokeRole",
			"outputs": [],
			"stateMutability": "nonpayable",
			"type": "function"
		},
		{
			"inputs": [
				{
					"internalType": "address",
					"name": "from",
					"type": "address"
				},
				{
					"internalType": "address",
					"name": "to",
					"type": "address"
				},
				{
					"internalType": "uint256",
					"name": "tokenId",
					"type": "uint256"
				}
			],
			"name": "safeTransferFrom",
			"outputs": [],
			"stateMutability": "nonpayable",
			"type": "function"
		},
		{
			"inputs": [
				{
					"internalType": "address",
					"name": "from",
					"type": "address"
				},
				{
					"internalType": "address",
					"name": "to",
					"type": "address"
				},
				{
					"internalType": "uint256",
					"name": "tokenId",
					"type": "uint256"
				},
				{
					"internalType": "bytes",
					"name": "data",
					"type": "bytes"
				}
			],
			"name": "safeTransferFrom",
			"outputs": [],
			"stateMutability": "nonpayable",
			"type": "function"
		},
		{
			"inputs": [],
			"name": "satelliteImageIdCounter",
			"outputs": [
				{
					"internalType": "uint256",
					"name": "_value",
					"type": "uint256"
				}
			],
			"stateMutability": "view",
			"type": "function"
		},
		{
			"inputs": [
				{
					"internalType": "uint256",
					"name": "",
					"type": "uint256"
				}
			],
			"name": "satelliteImagesOfProtectedArea",
			"outputs": [
				{
					"internalType": "string",
					"name": "",
					"type": "string"
				}
			],
			"stateMutability": "view",
			"type": "function"
		},
		{
			"inputs": [
				{
					"internalType": "uint256",
					"name": "_satelliteImageId",
					"type": "uint256"
				}
			],
			"name": "sellSatelliteImage",
			"outputs": [],
			"stateMutability": "nonpayable",
			"type": "function"
		},
		{
			"inputs": [
				{
					"internalType": "address",
					"name": "operator",
					"type": "address"
				},
				{
					"internalType": "bool",
					"name": "approved",
					"type": "bool"
				}
			],
			"name": "setApprovalForAll",
			"outputs": [],
			"stateMutability": "nonpayable",
			"type": "function"
		},
		{
			"inputs": [
				{
					"internalType": "uint256",
					"name": "_donation",
					"type": "uint256"
				}
			],
			"name": "setDonation",
			"outputs": [
				{
					"internalType": "uint256",
					"name": "",
					"type": "uint256"
				}
			],
			"stateMutability": "nonpayable",
			"type": "function"
		},
		{
			"inputs": [
				{
					"internalType": "uint256",
					"name": "_price",
					"type": "uint256"
				}
			],
			"name": "setPrice",
			"outputs": [
				{
					"internalType": "uint256",
					"name": "",
					"type": "uint256"
				}
			],
			"stateMutability": "nonpayable",
			"type": "function"
		},
		{
			"inputs": [
				{
					"internalType": "address",
					"name": "_relay",
					"type": "address"
				}
			],
			"name": "setRelayAddress",
			"outputs": [],
			"stateMutability": "nonpayable",
			"type": "function"
		},
		{
			"inputs": [
				{
					"internalType": "uint256",
					"name": "_protectedAreaId",
					"type": "uint256"
				},
				{
					"internalType": "string",
					"name": "_protectedAreaName",
					"type": "string"
				},
				{
					"internalType": "string",
					"name": "_lastDetectionDate",
					"type": "string"
				},
				{
					"internalType": "string",
					"name": "_totalExtension",
					"type": "string"
				},
				{
					"internalType": "string[]",
					"name": "_detectionDates",
					"type": "string[]"
				},
				{
					"internalType": "string[]",
					"name": "_forestCoverExtensions",
					"type": "string[]"
				}
			],
			"name": "storeMonitoringData",
			"outputs": [],
			"stateMutability": "nonpayable",
			"type": "function"
		},
		{
			"inputs": [
				{
					"internalType": "bytes4",
					"name": "interfaceId",
					"type": "bytes4"
				}
			],
			"name": "supportsInterface",
			"outputs": [
				{
					"internalType": "bool",
					"name": "",
					"type": "bool"
				}
			],
			"stateMutability": "view",
			"type": "function"
		},
		{
			"inputs": [],
			"name": "symbol",
			"outputs": [
				{
					"internalType": "string",
					"name": "",
					"type": "string"
				}
			],
			"stateMutability": "view",
			"type": "function"
		},
		{
			"inputs": [
				{
					"internalType": "uint256",
					"name": "tokenId",
					"type": "uint256"
				}
			],
			"name": "tokenURI",
			"outputs": [
				{
					"internalType": "string",
					"name": "",
					"type": "string"
				}
			],
			"stateMutability": "view",
			"type": "function"
		},
		{
			"inputs": [],
			"name": "totalAsserts",
			"outputs": [
				{
					"internalType": "uint256",
					"name": "",
					"type": "uint256"
				}
			],
			"stateMutability": "view",
			"type": "function"
		},
		{
			"inputs": [
				{
					"internalType": "address",
					"name": "from",
					"type": "address"
				},
				{
					"internalType": "address",
					"name": "to",
					"type": "address"
				},
				{
					"internalType": "uint256",
					"name": "tokenId",
					"type": "uint256"
				}
			],
			"name": "transferFrom",
			"outputs": [],
			"stateMutability": "nonpayable",
			"type": "function"
		}
	],
	"bytecode": "0x6080604052642e90edd000600b5564174876e800600c553480156200002357600080fd5b50604051620054c9380380620054c9833981016040819052620000469162000209565b60405180604001604052806007815260200166109a5bdc989a5d60ca1b815250604051806040016040528060038152602001621093d560ea1b815250816000908162000093919062000345565b506001620000a2828262000345565b5050600160085550620000b760003362000109565b620000e37fa49807205ce4d355092ef5a8a18f56e8913cf4a201fbe287825b095693c217753362000109565b600d80546001600160a01b0319166001600160a01b039290921691909117905562000415565b62000115828262000119565b5050565b620001258282620001a3565b620001155760008281526007602090815260408083206001600160a01b03851684529091529020805460ff191660011790556200015f3390565b6001600160a01b0316816001600160a01b0316837f2f8788117e7eff1d82e926ec794901d17c78024a50270940304540a733656f0d60405160405180910390a45050565b60008281526007602090815260408083206001600160a01b038516845290915290205460ff165b92915050565b60006001600160a01b038216620001ca565b620001ed81620001d0565b8114620001f957600080fd5b50565b8051620001ca81620001e2565b600060208284031215620002205762000220600080fd5b60006200022e8484620001fc565b949350505050565b634e487b7160e01b600052604160045260246000fd5b634e487b7160e01b600052602260045260246000fd5b6002810460018216806200027757607f821691505b6020821081036200028c576200028c6200024c565b50919050565b6000620001ca620002a08381565b90565b620002ae8362000292565b81546008840282811b60001990911b908116901990911617825550505050565b6000620002dd818484620002a3565b505050565b818110156200011557620002f8600082620002ce565b600101620002e2565b601f821115620002dd576000818152602090206020601f850104810160208510156200032a5750805b6200033e6020601f860104830182620002e2565b5050505050565b81516001600160401b0381111562000361576200036162000236565b6200036d825462000262565b6200037a82828562000301565b6020601f831160018114620003b15760008415620003985750858201515b600019600886021c19811660028602178655506200040d565b600085815260208120601f198616915b82811015620003e35788850151825560209485019460019092019101620003c1565b86831015620004005784890151600019601f89166008021c191682555b6001600288020188555050505b505050505050565b6150a480620004256000396000f3fe6080604052600436106102305760003560e01c806391d148541161012e578063c1b79140116100ab578063e5c65d301161006f578063e5c65d3014610695578063e772be31146106a8578063e985e9c5146106c8578063f49fba5614610711578063f676c6491461072857600080fd5b8063c1b79140146105f1578063c87b56dd14610611578063d547741f14610631578063d59e1e5414610651578063d8e720041461067e57600080fd5b8063a22cb465116100f2578063a22cb46514610544578063aa9f7a8914610564578063aeba8f3c14610591578063b59589d1146105b1578063b88d4fde146105d157600080fd5b806391d14854146104d157806395d89b41146104f15780639d3a5fc414610506578063a035b1fe14610519578063a217fddf1461052f57600080fd5b806336568abe116101bc57806375b238fc1161018057806375b238fc146104395780637bb5c63d1461045b5780637d32e0db146104885780638edeb15d1461049b57806391b7f5ed146104b157600080fd5b806336568abe14610399578063398440ba146103b957806342842e0e146103d95780636352211e146103f957806370a082311461041957600080fd5b806310fc459a1161020357806310fc459a146102dc57806323b872dd146102fc578063248a9ca31461031c5780632825df7b146103595780632f2ff15d1461037957600080fd5b806301ffc9a71461023557806306fdde031461026b578063081812fc1461028d578063095ea7b3146102ba575b600080fd5b34801561024157600080fd5b50610255610250366004613520565b61074a565b604051610262919061354b565b60405180910390f35b34801561027757600080fd5b5061028061075b565b60405161026291906135af565b34801561029957600080fd5b506102ad6102a83660046135d1565b6107ed565b604051610262919061360c565b3480156102c657600080fd5b506102da6102d536600461362e565b610814565b005b3480156102e857600080fd5b506102da6102f73660046135d1565b6108a2565b34801561030857600080fd5b506102da61031736600461366b565b610b0a565b34801561032857600080fd5b5061034c6103373660046135d1565b60009081526007602052604090206001015490565b60405161026291906136c1565b34801561036557600080fd5b5061034c6103743660046137bb565b610b3b565b34801561038557600080fd5b506102da610394366004613835565b610ba6565b3480156103a557600080fd5b506102da6103b4366004613835565b610bcb565b3480156103c557600080fd5b5061034c6103d43660046135d1565b610bfd565b3480156103e557600080fd5b506102da6103f436600461366b565b610c67565b34801561040557600080fd5b506102ad6104143660046135d1565b610c82565b34801561042557600080fd5b5061034c610434366004613868565b610cb7565b34801561044557600080fd5b5061034c60008051602061504f83398151915281565b34801561046757600080fd5b5061047b610476366004613889565b610cfb565b60405161026291906139f1565b6102da610496366004613a02565b61101a565b3480156104a757600080fd5b5061034c600b5481565b3480156104bd57600080fd5b5061034c6104cc3660046135d1565b61116f565b3480156104dd57600080fd5b506102556104ec366004613835565b6111d5565b3480156104fd57600080fd5b50610280611200565b6102da610514366004613a4f565b61120f565b34801561052557600080fd5b5061034c600c5481565b34801561053b57600080fd5b5061034c600081565b34801561055057600080fd5b506102da61055f366004613a9d565b611372565b34801561057057600080fd5b5061058461057f366004613889565b61137d565b6040516102629190613cd9565b34801561059d57600080fd5b506102da6105ac366004613868565b6119f1565b3480156105bd57600080fd5b50600d546102ad906001600160a01b031681565b3480156105dd57600080fd5b506102da6105ec366004613cea565b611a52565b3480156105fd57600080fd5b5061028061060c3660046135d1565b611a8a565b34801561061d57600080fd5b5061028061062c3660046135d1565b611b24565b34801561063d57600080fd5b506102da61064c366004613835565b611b2f565b34801561065d57600080fd5b5061067161066c3660046135d1565b611b54565b6040516102629190613d68565b34801561068a57600080fd5b5060095461034c9081565b3480156106a157600080fd5b504761034c565b3480156106b457600080fd5b506102da6106c3366004613e37565b611ceb565b3480156106d457600080fd5b506102556106e3366004613f43565b6001600160a01b03918216600090815260056020908152604080832093909416825291909152205460ff1690565b34801561071d57600080fd5b50600a5461034c9081565b34801561073457600080fd5b5061073d611e0a565b6040516102629190613fca565b600061075582612529565b92915050565b60606000805461076a90613ff1565b80601f016020809104026020016040519081016040528092919081815260200182805461079690613ff1565b80156107e35780601f106107b8576101008083540402835291602001916107e3565b820191906000526020600020905b8154815290600101906020018083116107c657829003601f168201915b5050505050905090565b60006107f88261254e565b506000908152600460205260409020546001600160a01b031690565b600061081f82610c82565b9050806001600160a01b0316836001600160a01b03160361085b5760405162461bcd60e51b815260040161085290614058565b60405180910390fd5b336001600160a01b0382161480610877575061087781336106e3565b6108935760405162461bcd60e51b8152600401610852906140c2565b61089d8383612585565b505050565b60008051602061504f8339815191526108ba816125f3565b6108c26125fd565b600082815260106020526040812080546108db90613ff1565b80601f016020809104026020016040519081016040528092919081815260200182805461090790613ff1565b80156109545780601f1061092957610100808354040283529160200191610954565b820191906000526020600020905b81548152906001019060200180831161093757829003601f168201915b50506040516331a9108f60e11b8152939450600093309350636352211e9250610982915087906004016136c1565b602060405180830381865afa15801561099f573d6000803e3d6000fd5b505050506040513d601f19601f820116820180604052508101906109c391906140dd565b60405163020604bf60e21b8152909150600090309063081812fc906109ec9088906004016136c1565b602060405180830381865afa158015610a09573d6000803e3d6000fd5b505050506040513d601f19601f82011682018060405250810190610a2d91906140dd565b90506000835111610a505760405162461bcd60e51b815260040161085290614150565b6001600160a01b0382163314610a785760405162461bcd60e51b815260040161085290614197565b6001600160a01b0381163014610aa05760405162461bcd60e51b8152600401610852906141db565b6040516323b872dd60e01b815230906323b872dd90610ac790339084908a906004016141eb565b600060405180830381600087803b158015610ae157600080fd5b505af1158015610af5573d6000803e3d6000fd5b50505050505050610b066001600855565b5050565b610b143382612626565b610b305760405162461bcd60e51b81526004016108529061425d565b61089d8383836126a5565b600060008051602061504f833981519152610b55816125f3565b610b5f84866127cd565b6000610b69612861565b90506000610b78828633612882565b9050610b86878783856128c4565b610b90338361299d565b610b9a82866129b7565b5091505b509392505050565b600082815260076020526040902060010154610bc1816125f3565b61089d8383612a03565b6001600160a01b0381163314610bf35760405162461bcd60e51b8152600401610852906142b9565b610b068282612a89565b600060008051602061504f833981519152610c17816125f3565b600b548303610c385760405162461bcd60e51b815260040161085290614312565b60008311610c585760405162461bcd60e51b815260040161085290614371565b600b8390558291505b50919050565b61089d83838360405180602001604052806000815250611a52565b6000818152600260205260408120546001600160a01b0316806107555760405162461bcd60e51b8152600401610852906143b5565b60006001600160a01b038216610cdf5760405162461bcd60e51b81526004016108529061440b565b506001600160a01b031660009081526003602052604090205490565b6060600f82604051610d0d919061443d565b9081526040519081900360200190205460ff161515600114610d415760405162461bcd60e51b81526004016108529061448b565b6000600e6000610d5085612af0565b81526020019081526020016000209050600081600801805490506001600160401b03811115610d8157610d816136cf565b604051908082528060200260200182016040528015610dba57816020015b610da7613468565b815260200190600190039081610d9f5790505b5090506000805b6008840154811015610f6457836008018181548110610de257610de261449b565b600091825260209091206004600590920201015460ff16610f5257836008018181548110610e1257610e1261449b565b90600052602060002090600502016040518060c0016040529081600082015481526020016001820160009054906101000a90046001600160a01b03166001600160a01b03166001600160a01b03168152602001600282018054610e7490613ff1565b80601f0160208091040260200160405190810160405280929190818152602001828054610ea090613ff1565b8015610eed5780601f10610ec257610100808354040283529160200191610eed565b820191906000526020600020905b815481529060010190602001808311610ed057829003601f168201915b50505091835250506003820154602082015260049091015460ff81161515604083015261010090046001600160a01b03166060909101528351849084908110610f3857610f3861449b565b60200260200101819052508180610f4e906144c7565b9250505b80610f5c816144c7565b915050610dc1565b506000816001600160401b03811115610f7f57610f7f6136cf565b604051908082528060200260200182016040528015610fb857816020015b610fa5613468565b815260200190600190039081610f9d5790505b50905060005b8281101561101057838181518110610fd857610fd861449b565b6020026020010151828281518110610ff257610ff261449b565b60200260200101819052508080611008906144c7565b915050610fbe565b5095945050505050565b6110226125fd565b600a548211156110445760405162461bcd60e51b815260040161085290614515565b600061104f8261137d565b80516000908152600e60205260408120919250805b600883015481101561116157858360080182815481106110865761108661449b565b9060005260206000209060050201600001540361114f578260080181815481106110b2576110b261449b565b90600052602060002090600502019150816003015434146110e55760405162461bcd60e51b81526004016108529061454f565b600482015460ff161561110a5760405162461bcd60e51b815260040161085290614593565b60048201805460ff191660011790556003820154604051339180156108fc02916000818181858888f19350505050158015611149573d6000803e3d6000fd5b50611161565b80611159816144c7565b915050611064565b50505050610b066001600855565b600060008051602061504f833981519152611189816125f3565b600c5483036111aa5760405162461bcd60e51b8152600401610852906145e8565b600083116111ca5760405162461bcd60e51b815260040161085290614643565b5050600c55600b5490565b60009182526007602090815260408084206001600160a01b0393909316845291905290205460ff1690565b60606001805461076a90613ff1565b600b543410156112315760405162461bcd60e51b81526004016108529061467c565b600f82604051611241919061443d565b9081526040519081900360200190205460ff16156112715760405162461bcd60e51b8152600401610852906146d3565b600061127b612b67565b6000818152600e6020526040902090915061129881838686612b83565b6007810180546001810182556000918252602082200180546001600160a01b03191633179055600d546040516001600160a01b0391909116913480156108fc02929091818181858888f193505050501580156112f8573d6000803e3d6000fd5b506001600f8560405161130b919061443d565b908152604051908190036020018120805492151560ff199093169290921790915581547f8689fd18b963b0e3ae1cc0f7fee7e636e6d71af156db3b9b10b6c7744c51d0149161136491906001850190600286019061475d565b60405180910390a150505050565b610b06338383612baa565b6113856134b2565b60005b6009548110156119d8578280519060200120600e60008381526020019081526020016000206001016040516113bd9190614800565b60405180910390201480156113f15750600f836040516113dd919061443d565b9081526040519081900360200190205460ff165b156119c657600e6000828152602001908152602001600020604051806101200160405290816000820154815260200160018201805461142f90613ff1565b80601f016020809104026020016040519081016040528092919081815260200182805461145b90613ff1565b80156114a85780601f1061147d576101008083540402835291602001916114a8565b820191906000526020600020905b81548152906001019060200180831161148b57829003601f168201915b505050505081526020016002820180546114c190613ff1565b80601f01602080910402602001604051908101604052809291908181526020018280546114ed90613ff1565b801561153a5780601f1061150f5761010080835404028352916020019161153a565b820191906000526020600020905b81548152906001019060200180831161151d57829003601f168201915b5050505050815260200160038201805461155390613ff1565b80601f016020809104026020016040519081016040528092919081815260200182805461157f90613ff1565b80156115cc5780601f106115a1576101008083540402835291602001916115cc565b820191906000526020600020905b8154815290600101906020018083116115af57829003601f168201915b505050505081526020016004820180546115e590613ff1565b80601f016020809104026020016040519081016040528092919081815260200182805461161190613ff1565b801561165e5780601f106116335761010080835404028352916020019161165e565b820191906000526020600020905b81548152906001019060200180831161164157829003601f168201915b5050505050815260200160058201805480602002602001604051908101604052809291908181526020016000905b828210156117385783829060005260206000200180546116ab90613ff1565b80601f01602080910402602001604051908101604052809291908181526020018280546116d790613ff1565b80156117245780601f106116f957610100808354040283529160200191611724565b820191906000526020600020905b81548152906001019060200180831161170757829003601f168201915b50505050508152602001906001019061168c565b50505050815260200160068201805480602002602001604051908101604052809291908181526020016000905b8282101561181157838290600052602060002001805461178490613ff1565b80601f01602080910402602001604051908101604052809291908181526020018280546117b090613ff1565b80156117fd5780601f106117d2576101008083540402835291602001916117fd565b820191906000526020600020905b8154815290600101906020018083116117e057829003601f168201915b505050505081526020019060010190611765565b5050505081526020016007820180548060200260200160405190810160405280929190818152602001828054801561187257602002820191906000526020600020905b81546001600160a01b03168152600190910190602001808311611854575b5050505050815260200160088201805480602002602001604051908101604052809291908181526020016000905b828210156119b75760008481526020908190206040805160c081018252600586029092018054835260018101546001600160a01b031693830193909352600283018054929392918401916118f390613ff1565b80601f016020809104026020016040519081016040528092919081815260200182805461191f90613ff1565b801561196c5780601f106119415761010080835404028352916020019161196c565b820191906000526020600020905b81548152906001019060200180831161194f57829003601f168201915b5050509183525050600382015460208083019190915260049092015460ff81161515604083015261010090046001600160a01b031660609091015290825260019290920191016118a0565b50505091525090949350505050565b806119d0816144c7565b915050611388565b5060405162461bcd60e51b81526004016108529061484a565b60008051602061504f833981519152611a09816125f3565b6001600160a01b038216611a2f5760405162461bcd60e51b815260040161085290614886565b50600d80546001600160a01b0319166001600160a01b0392909216919091179055565b611a5c3383612626565b611a785760405162461bcd60e51b81526004016108529061425d565b611a8484848484612c4c565b50505050565b60106020526000908152604090208054611aa390613ff1565b80601f0160208091040260200160405190810160405280929190818152602001828054611acf90613ff1565b8015611b1c5780601f10611af157610100808354040283529160200191611b1c565b820191906000526020600020905b815481529060010190602001808311611aff57829003601f168201915b505050505081565b606061075582612c7f565b600082815260076020526040902060010154611b4a816125f3565b61089d8383612a89565b611b5c613468565b60005b600954811015611cd2576000818152600e60205260408120905b6008820154811015611cbd576000826008018281548110611b9c57611b9c61449b565b9060005260206000209060050201905085816000015403611caa576040805160c0810182528254815260018301546001600160a01b03166020820152600283018054919284929084019190611bf090613ff1565b80601f0160208091040260200160405190810160405280929190818152602001828054611c1c90613ff1565b8015611c695780601f10611c3e57610100808354040283529160200191611c69565b820191906000526020600020905b815481529060010190602001808311611c4c57829003601f168201915b50505091835250506003820154602082015260049091015460ff81161515604083015261010090046001600160a01b03166060909101529695505050505050565b5080611cb5816144c7565b915050611b79565b50508080611cca906144c7565b915050611b5f565b5060405162461bcd60e51b8152600401610852906148ca565b60008051602061504f833981519152611d03816125f3565b611d0d86886127cd565b611d1687612d87565b6000878152600e6020526040902060038101611d328782614970565b5060048101611d418682614970565b5060005b8451811015611da05781600501858281518110611d6457611d6461449b565b60209081029190910181015182546001810184556000938452919092200190611d8d9082614970565b5080611d98816144c7565b915050611d45565b5060005b8351811015611dff5781600601848281518110611dc357611dc361449b565b60209081029190910181015182546001810184556000938452919092200190611dec9082614970565b5080611df7816144c7565b915050611da4565b505050505050505050565b60606000805b600954811015611e7757600f600e6000838152602001908152602001600020600101604051611e3f9190614800565b9081526040519081900360200190205460ff1615611e655781611e61816144c7565b9250505b80611e6f816144c7565b915050611e10565b506000816001600160401b03811115611e9257611e926136cf565b604051908082528060200260200182016040528015611ecb57816020015b611eb86134b2565b815260200190600190039081611eb05790505b5090506000805b60095481101561252057600f600e6000838152602001908152602001600020600101604051611f019190614800565b9081526040519081900360200190205460ff161561250e57600e60008281526020019081526020016000206040518061012001604052908160008201548152602001600182018054611f5290613ff1565b80601f0160208091040260200160405190810160405280929190818152602001828054611f7e90613ff1565b8015611fcb5780601f10611fa057610100808354040283529160200191611fcb565b820191906000526020600020905b815481529060010190602001808311611fae57829003601f168201915b50505050508152602001600282018054611fe490613ff1565b80601f016020809104026020016040519081016040528092919081815260200182805461201090613ff1565b801561205d5780601f106120325761010080835404028352916020019161205d565b820191906000526020600020905b81548152906001019060200180831161204057829003601f168201915b5050505050815260200160038201805461207690613ff1565b80601f01602080910402602001604051908101604052809291908181526020018280546120a290613ff1565b80156120ef5780601f106120c4576101008083540402835291602001916120ef565b820191906000526020600020905b8154815290600101906020018083116120d257829003601f168201915b5050505050815260200160048201805461210890613ff1565b80601f016020809104026020016040519081016040528092919081815260200182805461213490613ff1565b80156121815780601f1061215657610100808354040283529160200191612181565b820191906000526020600020905b81548152906001019060200180831161216457829003601f168201915b5050505050815260200160058201805480602002602001604051908101604052809291908181526020016000905b8282101561225b5783829060005260206000200180546121ce90613ff1565b80601f01602080910402602001604051908101604052809291908181526020018280546121fa90613ff1565b80156122475780601f1061221c57610100808354040283529160200191612247565b820191906000526020600020905b81548152906001019060200180831161222a57829003601f168201915b5050505050815260200190600101906121af565b50505050815260200160068201805480602002602001604051908101604052809291908181526020016000905b828210156123345783829060005260206000200180546122a790613ff1565b80601f01602080910402602001604051908101604052809291908181526020018280546122d390613ff1565b80156123205780601f106122f557610100808354040283529160200191612320565b820191906000526020600020905b81548152906001019060200180831161230357829003601f168201915b505050505081526020019060010190612288565b5050505081526020016007820180548060200260200160405190810160405280929190818152602001828054801561239557602002820191906000526020600020905b81546001600160a01b03168152600190910190602001808311612377575b5050505050815260200160088201805480602002602001604051908101604052809291908181526020016000905b828210156124da5760008481526020908190206040805160c081018252600586029092018054835260018101546001600160a01b0316938301939093526002830180549293929184019161241690613ff1565b80601f016020809104026020016040519081016040528092919081815260200182805461244290613ff1565b801561248f5780601f106124645761010080835404028352916020019161248f565b820191906000526020600020905b81548152906001019060200180831161247257829003601f168201915b5050509183525050600382015460208083019190915260049092015460ff81161515604083015261010090046001600160a01b031660609091015290825260019290920191016123c3565b50505050815250508383815181106124f4576124f461449b565b6020026020010181905250818061250a906144c7565b9250505b80612518816144c7565b915050611ed2565b50909392505050565b60006001600160e01b03198216637965db0b60e01b1480610755575061075582612e35565b6000818152600260205260409020546001600160a01b03166125825760405162461bcd60e51b8152600401610852906143b5565b50565b600081815260046020526040902080546001600160a01b0319166001600160a01b03841690811790915581906125ba82610c82565b6001600160a01b03167f8c5be1e5ebec7d5bd14f71427d1e84f3dd0314c0f7b2291e5b200ac8c7c3b92560405160405180910390a45050565b6125828133612e85565b60026008540361261f5760405162461bcd60e51b815260040161085290614a66565b6002600855565b60008061263283610c82565b9050806001600160a01b0316846001600160a01b0316148061267957506001600160a01b0380821660009081526005602090815260408083209388168352929052205460ff165b8061269d5750836001600160a01b0316612692846107ed565b6001600160a01b0316145b949350505050565b826001600160a01b03166126b882610c82565b6001600160a01b0316146126de5760405162461bcd60e51b815260040161085290614ab8565b6001600160a01b0382166127045760405162461bcd60e51b815260040161085290614b09565b826001600160a01b031661271782610c82565b6001600160a01b03161461273d5760405162461bcd60e51b815260040161085290614ab8565b600081815260046020908152604080832080546001600160a01b03199081169091556001600160a01b0387811680865260038552838620805460001901905590871680865283862080546001019055868652600290945282852080549092168417909155905184937fddf252ad1be2c89b69c2b068fc378daa952ba7f163c4a11628f55a4df523b3ef91a4505050565b600f826040516127dd919061443d565b9081526040519081900360200190205460ff1661280c5760405162461bcd60e51b815260040161085290614b58565b6000600e6000838152602001908152602001600020905082805190602001208160010160405161283c9190614800565b60405180910390201461089d5760405162461bcd60e51b815260040161085290614ba9565b60008061286d600a5490565b905061287d600a80546001019055565b919050565b61288a613468565b506040805160c081018252938452306020850152830191909152600c546060830152600060808301526001600160a01b031660a082015290565b6000848152600e60209081526040808320600881018054600180820183559186529484902087516005909602019485559286015192840180546001600160a01b0319166001600160a01b039094169390931790925584015190918491600282019061292f9082614970565b506060820151600382015560808201516004909101805460a0909301516001600160a01b031661010002610100600160a81b0319921515929092166001600160a81b03199093169290921717905560008281526010602052604090206129958582614970565b505050505050565b610b06828260405180602001604052806000815250612ede565b6000828152600260205260409020546001600160a01b03166129eb5760405162461bcd60e51b815260040161085290614c04565b600082815260066020526040902061089d8282614970565b612a0d82826111d5565b610b065760008281526007602090815260408083206001600160a01b03851684529091529020805460ff19166001179055612a453390565b6001600160a01b0316816001600160a01b0316837f2f8788117e7eff1d82e926ec794901d17c78024a50270940304540a733656f0d60405160405180910390a45050565b612a9382826111d5565b15610b065760008281526007602090815260408083206001600160a01b0385168085529252808320805460ff1916905551339285917ff6391f5c32d9c69d2a47ea670b442974b53935d1edc7fd64eb21e047a839171b9190a45050565b6000805b600954811015612b4e578280519060200120600e6000838152602001908152602001600020600101604051612b299190614800565b604051809103902003612b3c5792915050565b80612b46816144c7565b915050612af4565b5060405162461bcd60e51b815260040161085290614c48565b600080612b7360095490565b905061287d600980546001019055565b82845560018401612b948382614970565b5060028401612ba38282614970565b5050505050565b816001600160a01b0316836001600160a01b031603612bdb5760405162461bcd60e51b815260040161085290614c8c565b6001600160a01b0383811660008181526005602090815260408083209487168084529490915290819020805460ff1916851515179055517f17307eab39ab6107e8899845ad3d59bd9653f200f220920489ca2b5937696c3190612c3f90859061354b565b60405180910390a3505050565b612c578484846126a5565b612c6384848484612f11565b611a845760405162461bcd60e51b815260040161085290614ceb565b6060612c8a8261254e565b60008281526006602052604081208054612ca390613ff1565b80601f0160208091040260200160405190810160405280929190818152602001828054612ccf90613ff1565b8015612d1c5780601f10612cf157610100808354040283529160200191612d1c565b820191906000526020600020905b815481529060010190602001808311612cff57829003601f168201915b505050505090506000612d3a60408051602081019091526000815290565b90508051600003612d4c575092915050565b815115612d7e578082604051602001612d66929190614cfb565b60405160208183030381529060405292505050919050565b61269d84613012565b6000818152600e60205260409020600381018054612da490613ff1565b159050612dc35760405162461bcd60e51b815260040161085290614d5d565b806004018054612dd290613ff1565b159050612df15760405162461bcd60e51b815260040161085290614db4565b600581015415612e135760405162461bcd60e51b815260040161085290614e0b565b600681015415610b065760405162461bcd60e51b815260040161085290614e69565b60006001600160e01b031982166380ac58cd60e01b1480612e6657506001600160e01b03198216635b5e139f60e01b145b8061075557506301ffc9a760e01b6001600160e01b0319831614610755565b612e8f82826111d5565b610b0657612e9c81613086565b612ea7836020613098565b604051602001612eb8929190614e79565b60408051601f198184030181529082905262461bcd60e51b8252610852916004016135af565b612ee88383613203565b612ef56000848484612f11565b61089d5760405162461bcd60e51b815260040161085290614ceb565b60006001600160a01b0384163b1561300757604051630a85bd0160e11b81526001600160a01b0385169063150b7a0290612f55903390899088908890600401614ecd565b6020604051808303816000875af1925050508015612f90575060408051601f3d908101601f19168201909252612f8d91810190614f1c565b60015b612fed573d808015612fbe576040519150601f19603f3d011682016040523d82523d6000602084013e612fc3565b606091505b508051600003612fe55760405162461bcd60e51b815260040161085290614ceb565b805181602001fd5b6001600160e01b031916630a85bd0160e11b14905061269d565b506001949350505050565b606061301d8261254e565b600061303460408051602081019091526000815290565b90506000815111613054576040518060200160405280600081525061307f565b8061305e846132fe565b60405160200161306f929190614cfb565b6040516020818303038152906040525b9392505050565b60606107556001600160a01b03831660145b606060006130a7836002614f3d565b6130b2906002614f5c565b6001600160401b038111156130c9576130c96136cf565b6040519080825280601f01601f1916602001820160405280156130f3576020820181803683370190505b509050600360fc1b8160008151811061310e5761310e61449b565b60200101906001600160f81b031916908160001a905350600f60fb1b8160018151811061313d5761313d61449b565b60200101906001600160f81b031916908160001a9053506000613161846002614f3d565b61316c906001614f5c565b90505b60018111156131e4576f181899199a1a9b1b9c1cb0b131b232b360811b85600f16601081106131a0576131a061449b565b1a60f81b8282815181106131b6576131b661449b565b60200101906001600160f81b031916908160001a90535060049490941c936131dd81614f6f565b905061316f565b50831561307f5760405162461bcd60e51b815260040161085290614fb8565b6001600160a01b0382166132295760405162461bcd60e51b815260040161085290614ffa565b6000818152600260205260409020546001600160a01b03161561325e5760405162461bcd60e51b81526004016108529061503e565b6000818152600260205260409020546001600160a01b0316156132935760405162461bcd60e51b81526004016108529061503e565b6001600160a01b038216600081815260036020908152604080832080546001019055848352600290915280822080546001600160a01b0319168417905551839291907fddf252ad1be2c89b69c2b068fc378daa952ba7f163c4a11628f55a4df523b3ef908290a45050565b6060600061330b83613390565b60010190506000816001600160401b0381111561332a5761332a6136cf565b6040519080825280601f01601f191660200182016040528015613354576020820181803683370190505b5090508181016020015b600019016f181899199a1a9b1b9c1cb0b131b232b360811b600a86061a8153600a850494508461335e57509392505050565b60008072184f03e93ff9f4daa797ed6e38ed64bf6a1f0160401b83106133cf5772184f03e93ff9f4daa797ed6e38ed64bf6a1f0160401b830492506040015b6d04ee2d6d415b85acef810000000083106133fb576d04ee2d6d415b85acef8100000000830492506020015b662386f26fc10000831061341957662386f26fc10000830492506010015b6305f5e1008310613431576305f5e100830492506008015b612710831061344557612710830492506004015b60648310613457576064830492506002015b600a83106107555760010192915050565b6040518060c001604052806000815260200160006001600160a01b03168152602001606081526020016000815260200160001515815260200160006001600160a01b031681525090565b6040518061012001604052806000815260200160608152602001606081526020016060815260200160608152602001606081526020016060815260200160608152602001606081525090565b6001600160e01b031981165b811461258257600080fd5b8035610755816134fe565b60006020828403121561353557613535600080fd5b600061269d8484613515565b8015155b82525050565b602081016107558284613541565b60005b8381101561357457818101518382015260200161355c565b50506000910152565b6000613587825190565b80845260208401935061359e818560208601613559565b601f01601f19169290920192915050565b6020808252810161307f818461357d565b8061350a565b8035610755816135c0565b6000602082840312156135e6576135e6600080fd5b600061269d84846135c6565b60006001600160a01b038216610755565b613545816135f2565b602081016107558284613603565b61350a816135f2565b80356107558161361a565b6000806040838503121561364457613644600080fd5b60006136508585613623565b9250506020613661858286016135c6565b9150509250929050565b60008060006060848603121561368357613683600080fd5b600061368f8686613623565b93505060206136a086828701613623565b92505060406136b1868287016135c6565b9150509250925092565b80613545565b6020810161075582846136bb565b634e487b7160e01b600052604160045260246000fd5b601f19601f83011681018181106001600160401b038211171561370a5761370a6136cf565b6040525050565b600061371c60405190565b905061287d82826136e5565b60006001600160401b03821115613741576137416136cf565b601f19601f83011660200192915050565b82818337506000910152565b600061377161376c84613728565b613711565b90508281526020810184848401111561378c5761378c600080fd5b610b9e848285613752565b600082601f8301126137ab576137ab600080fd5b813561269d84826020860161375e565b6000806000606084860312156137d3576137d3600080fd5b60006137df86866135c6565b93505060208401356001600160401b038111156137fe576137fe600080fd5b61380a86828701613797565b92505060408401356001600160401b0381111561382957613829600080fd5b6136b186828701613797565b6000806040838503121561384b5761384b600080fd5b600061385785856135c6565b925050602061366185828601613623565b60006020828403121561387d5761387d600080fd5b600061269d8484613623565b60006020828403121561389e5761389e600080fd5b81356001600160401b038111156138b7576138b7600080fd5b61269d84828501613797565b60006107556001600160a01b0383166138da565b90565b6001600160a01b031690565b6000610755826138c3565b6000610755826138e6565b613545816138f1565b805160009060c084019061391985826136bb565b50602083015161392c60208601826138fc565b5060408301518482036040860152613944828261357d565b915050606083015161395960608601826136bb565b50608083015161396c6080860182613541565b5060a0830151610b9e60a0860182613603565b600061307f8383613905565b6000613995825190565b808452602084019350836020820285016139af8560200190565b8060005b858110156139e457848403895281516139cc858261397f565b94506020830160209a909a01999250506001016139b3565b5091979650505050505050565b6020808252810161307f818461398b565b60008060408385031215613a1857613a18600080fd5b6000613a2485856135c6565b92505060208301356001600160401b03811115613a4357613a43600080fd5b61366185828601613797565b60008060408385031215613a6557613a65600080fd5b82356001600160401b03811115613a7e57613a7e600080fd5b613a2485828601613797565b80151561350a565b803561075581613a8a565b60008060408385031215613ab357613ab3600080fd5b6000613abf8585613623565b925050602061366185828601613a92565b600061307f838361357d565b6000613ae6825190565b80845260208401935083602082028501613b008560200190565b8060005b858110156139e45784840389528151613b1d8582613ad0565b94506020830160209a909a0199925050600101613b04565b6000613b418383613603565b505060200190565b6000613b53825190565b80845260209384019383018060005b83811015613b87578151613b768882613b35565b975060208301925050600101613b62565b509495945050505050565b6000613b9c825190565b80845260208401935083602082028501613bb68560200190565b8060005b858110156139e45784840389528151613bd3858261397f565b94506020830160209a909a0199925050600101613bba565b8051600090610120840190613c0085826136bb565b5060208301518482036020860152613c18828261357d565b91505060408301518482036040860152613c32828261357d565b91505060608301518482036060860152613c4c828261357d565b91505060808301518482036080860152613c66828261357d565b91505060a083015184820360a0860152613c808282613adc565b91505060c083015184820360c0860152613c9a8282613adc565b91505060e083015184820360e0860152613cb48282613b49565b915050610100830151848203610100860152613cd08282613b92565b95945050505050565b6020808252810161307f8184613beb565b60008060008060808587031215613d0357613d03600080fd5b6000613d0f8787613623565b9450506020613d2087828801613623565b9350506040613d31878288016135c6565b92505060608501356001600160401b03811115613d5057613d50600080fd5b613d5c87828801613797565b91505092959194509250565b6020808252810161307f8184613905565b60006001600160401b03821115613d9257613d926136cf565b5060209081020190565b6000613daa61376c84613d79565b83815290506020808201908402830185811115613dc957613dc9600080fd5b835b81811015613e095780356001600160401b03811115613dec57613dec600080fd5b808601613df98982613797565b8552505060209283019201613dcb565b5050509392505050565b600082601f830112613e2757613e27600080fd5b813561269d848260208601613d9c565b60008060008060008060c08789031215613e5357613e53600080fd5b6000613e5f89896135c6565b96505060208701356001600160401b03811115613e7e57613e7e600080fd5b613e8a89828a01613797565b95505060408701356001600160401b03811115613ea957613ea9600080fd5b613eb589828a01613797565b94505060608701356001600160401b03811115613ed457613ed4600080fd5b613ee089828a01613797565b93505060808701356001600160401b03811115613eff57613eff600080fd5b613f0b89828a01613e13565b92505060a08701356001600160401b03811115613f2a57613f2a600080fd5b613f3689828a01613e13565b9150509295509295509295565b60008060408385031215613f5957613f59600080fd5b60006138578585613623565b600061307f8383613beb565b6000613f7b825190565b80845260208401935083602082028501613f958560200190565b8060005b858110156139e45784840389528151613fb28582613f65565b94506020830160209a909a0199925050600101613f99565b6020808252810161307f8184613f71565b634e487b7160e01b600052602260045260246000fd5b60028104600182168061400557607f821691505b602082108103610c6157610c61613fdb565b602181526000602082017f4552433732313a20617070726f76616c20746f2063757272656e74206f776e658152603960f91b602082015291505b5060400190565b6020808252810161075581614017565b603d81526000602082017f4552433732313a20617070726f76652063616c6c6572206973206e6f7420746f81527f6b656e206f776e6572206f7220617070726f76656420666f7220616c6c00000060208201529150614051565b6020808252810161075581614068565b80516107558161361a565b6000602082840312156140f2576140f2600080fd5b600061269d84846140d2565b603581526000602082017f536174656c6c69746520696d61676520646f65736e27742062656c6f6e672074815274379030b73c90383937ba32b1ba32b21030b932b09760591b60208201529150614051565b60208082528101610755816140fe565b601981526000602082017f546865206f776e65722069736e2774204e4654206f776e657200000000000000815291505b5060200190565b6020808252810161075581614160565b601b81526000602082017f546865204e46542069736e277420617070726f766564207965742e000000000081529150614190565b60208082528101610755816141a7565b606081016141f98286613603565b6142066020830185613603565b61269d60408301846136bb565b602d81526000602082017f4552433732313a2063616c6c6572206973206e6f7420746f6b656e206f776e6581526c1c881bdc88185c1c1c9bdd9959609a1b60208201529150614051565b6020808252810161075581614213565b602f81526000602082017f416363657373436f6e74726f6c3a2063616e206f6e6c792072656e6f756e636581526e103937b632b9903337b91039b2b63360891b60208201529150614051565b602080825281016107558161426d565b602c81526000602082017f546865206e657720646f6e6174696f6e2076616c7565206d757374206e6f742081526b3132903a34329039b0b6b29760a11b60208201529150614051565b60208082528101610755816142c9565b603281526000602082017f546865206e657720646f6e6174696f6e2076616c7565206d757374206265206481527134b33332b932b73a103737b716bd32b9379760711b60208201529150614051565b6020808252810161075581614322565b601881526000602082017f4552433732313a20696e76616c696420746f6b656e204944000000000000000081529150614190565b6020808252810161075581614381565b602981526000602082017f4552433732313a2061646472657373207a65726f206973206e6f7420612076618152683634b21037bbb732b960b91b60208201529150614051565b60208082528101610755816143c5565b6000614425825190565b614433818560208601613559565b9290920192915050565b600061307f828461441b565b602581526000602082017f50726f74656374656420617265612069736e2774206265696e67206d6f6e697481526437b932b21760d91b60208201529150614051565b6020808252810161075581614449565b634e487b7160e01b600052603260045260246000fd5b634e487b7160e01b600052601160045260246000fd5b600060001982036144da576144da6144b1565b5060010190565b601e81526000602082017f536174656c6c69746520696d61676520646f65736e27742065786973742e000081529150614190565b60208082528101610755816144e1565b601381526000602082017224b739bab33334b1b4b2b73a10333ab732399760691b81529150614190565b6020808252810161075581614525565b601d81526000602082017f536174656c6c69746520496d61676520616c726561647920736f6c642e00000081529150614190565b602080825281016107558161455f565b602881526000602082017f546865206e6577204e465473207072696365206d757374206e6f74206265207481526734329039b0b6b29760c11b60208201529150614051565b60208082528101610755816145a3565b602e81526000602082017f546865206e6577204e465473207072696365206d75737420626520646966666581526d3932b73a103737b716bd32b9379760911b60208201529150614051565b60208082528101610755816145f8565b6012815260006020820171496e73756666696369656e742066756e647360701b81529150614190565b6020808252810161075581614653565b602a81526000602082017f50726f746563746564206172656120697320616c7265616479206265696e672081526936b7b734ba37b932b21760b11b60208201529150614051565b602080825281016107558161468c565b600081546146f081613ff1565b808552602085019450600182168015614710576001811461472657614754565b60ff198316865260208215150286019350614754565b60008581526020902060005b8381101561474e57815488820152600190910190602001614732565b87019450505b50505092915050565b6060810161476b82866136bb565b818103602083015261477d81856146e3565b90508181036040830152613cd081846146e3565b6000815461479e81613ff1565b6001821680156147b557600181146147ca57614754565b60ff1983168652811515820286019350614754565b60008581526020902060005b838110156147f2578154888201526001909101906020016147d6565b505050939093019392505050565b600061307f8284614791565b602181526000602082017f4e6f206d61746368696e672070726f746563746564206172656120666f756e648152601760f91b60208201529150614051565b602080825281016107558161480c565b6015815260006020820174496e76616c69642072656c6179206164647265737360581b81529150614190565b602080825281016107558161485a565b601881526000602082017f536174656c6c697465496d616765206e6f7420666f756e64000000000000000081529150614190565b6020808252810161075581614896565b60006107556138d78381565b6148ef836148da565b81546008840282811b60001990911b908116901990911617825550505050565b600061089d8184846148e6565b81811015610b065761492f60008261490f565b60010161491c565b601f82111561089d576000818152602090206020601f8501048101602085101561495e5750805b612ba36020601f86010483018261491c565b81516001600160401b03811115614989576149896136cf565b6149938254613ff1565b61499e828285614937565b6020601f8311600181146149d257600084156149ba5750858201515b600019600886021c1981166002860217865550612995565b600085815260208120601f198616915b82811015614a0257888501518255602094850194600190920191016149e2565b86831015614a1e5784890151600019601f89166008021c191682555b600160028802018855505050505050505050565b601f81526000602082017f5265656e7472616e637947756172643a207265656e7472616e742063616c6c0081529150614190565b6020808252810161075581614a32565b602581526000602082017f4552433732313a207472616e736665722066726f6d20696e636f72726563742081526437bbb732b960d91b60208201529150614051565b6020808252810161075581614a76565b602481526000602082017f4552433732313a207472616e7366657220746f20746865207a65726f206164648152637265737360e01b60208201529150614051565b6020808252810161075581614ac8565b602281526000602082017f50726f7465637465642061726561206973206265696e67206d6f6e69746f7265815261321760f11b60208201529150614051565b6020808252810161075581614b19565b602481526000602082017f54686579206172656e2774207468652073616d652070726f74656374656420618152633932b09760e11b60208201529150614051565b6020808252810161075581614b68565b602e81526000602082017f45524337323155524953746f726167653a2055524920736574206f66206e6f6e81526d32bc34b9ba32b73a103a37b5b2b760911b60208201529150614051565b6020808252810161075581614bb9565b601981526000602082017f50726f7465637465642061726561206e6f7420666f756e642e0000000000000081529150614190565b6020808252810161075581614c14565b601981526000602082017f4552433732313a20617070726f766520746f2063616c6c65720000000000000081529150614190565b6020808252810161075581614c58565b603281526000602082017f4552433732313a207472616e7366657220746f206e6f6e20455243373231526581527131b2b4bb32b91034b6b83632b6b2b73a32b960711b60208201529150614051565b6020808252810161075581614c9c565b6000614d07828561441b565b915061269d828461441b565b602d81526000602082017f50726f746563746564206172656120616c726561647920686173206c6173744481526c32ba32b1ba34b7b72230ba329760991b60208201529150614051565b6020808252810161075581614d13565b602a81526000602082017f50726f746563746564206172656120616c72656164792068617320746f74616c81526922bc3a32b739b4b7b71760b11b60208201529150614051565b6020808252810161075581614d6d565b602a81526000602082017f50726f746563746564206172656120616c7265616479206861732064657465638152693a34b7b72230ba32b99760b11b60208201529150614051565b6020808252810161075581614dc4565b603181526000602082017f50726f746563746564206172656120616c72656164792068617320666f7265738152703a21b7bb32b922bc3a32b739b4b7b7399760791b60208201529150614051565b6020808252810161075581614e1b565b7f416363657373436f6e74726f6c3a206163636f756e742000000000000000000081526017016000614eab828561441b565b7001034b99036b4b9b9b4b733903937b6329607d1b8152915060118201614d07565b60808101614edb8287613603565b614ee86020830186613603565b614ef560408301856136bb565b8181036060830152614f07818461357d565b9695505050505050565b8051610755816134fe565b600060208284031215614f3157614f31600080fd5b600061269d8484614f11565b818102808215838204851417614f5557614f556144b1565b5092915050565b80820180821115610755576107556144b1565b600081614f7e57614f7e6144b1565b506000190190565b60208082527f537472696e67733a20686578206c656e67746820696e73756666696369656e7491019081526000614190565b6020808252810161075581614f86565b60208082527f4552433732313a206d696e7420746f20746865207a65726f206164647265737391019081526000614190565b6020808252810161075581614fc8565b601c81526000602082017f4552433732313a20746f6b656e20616c7265616479206d696e7465640000000081529150614190565b602080825281016107558161500a56fea49807205ce4d355092ef5a8a18f56e8913cf4a201fbe287825b095693c21775a264697066735822122069f3dfed2b99e978e3b91e0ee3a6cc58989066c353c3b147f274d3df18c4749164736f6c63430008110033",
	"linkReferences": {},
	"deployedLinkReferences": {}
}