{
	"_format": "hh-sol-artifact-1",
	"contractName": "Biorbit",
	"sourceName": "contracts/biorbit/Biorbit.sol",
	"address": "0x660D3ce0A4635874F9b4734a940bBaC2a95ca084",
	"abi": [
		{
			"inputs": [
				{
					"internalType": "address",
					"name": "_relay",
					"type": "address"
				}
			],
			"stateMutability": "nonpayable",
			"type": "constructor"
		},
		{
			"anonymous": false,
			"inputs": [
				{
					"indexed": true,
					"internalType": "address",
					"name": "owner",
					"type": "address"
				},
				{
					"indexed": true,
					"internalType": "address",
					"name": "approved",
					"type": "address"
				},
				{
					"indexed": true,
					"internalType": "uint256",
					"name": "tokenId",
					"type": "uint256"
				}
			],
			"name": "Approval",
			"type": "event"
		},
		{
			"anonymous": false,
			"inputs": [
				{
					"indexed": true,
					"internalType": "address",
					"name": "owner",
					"type": "address"
				},
				{
					"indexed": true,
					"internalType": "address",
					"name": "operator",
					"type": "address"
				},
				{
					"indexed": false,
					"internalType": "bool",
					"name": "approved",
					"type": "bool"
				}
			],
			"name": "ApprovalForAll",
			"type": "event"
		},
		{
			"anonymous": false,
			"inputs": [
				{
					"indexed": false,
					"internalType": "uint256",
					"name": "",
					"type": "uint256"
				},
				{
					"indexed": false,
					"internalType": "string",
					"name": "",
					"type": "string"
				},
				{
					"indexed": false,
					"internalType": "string",
					"name": "",
					"type": "string"
				}
			],
			"name": "ProtectedAreaCreated",
			"type": "event"
		},
		{
			"anonymous": false,
			"inputs": [
				{
					"indexed": true,
					"internalType": "bytes32",
					"name": "role",
					"type": "bytes32"
				},
				{
					"indexed": true,
					"internalType": "bytes32",
					"name": "previousAdminRole",
					"type": "bytes32"
				},
				{
					"indexed": true,
					"internalType": "bytes32",
					"name": "newAdminRole",
					"type": "bytes32"
				}
			],
			"name": "RoleAdminChanged",
			"type": "event"
		},
		{
			"anonymous": false,
			"inputs": [
				{
					"indexed": true,
					"internalType": "bytes32",
					"name": "role",
					"type": "bytes32"
				},
				{
					"indexed": true,
					"internalType": "address",
					"name": "account",
					"type": "address"
				},
				{
					"indexed": true,
					"internalType": "address",
					"name": "sender",
					"type": "address"
				}
			],
			"name": "RoleGranted",
			"type": "event"
		},
		{
			"anonymous": false,
			"inputs": [
				{
					"indexed": true,
					"internalType": "bytes32",
					"name": "role",
					"type": "bytes32"
				},
				{
					"indexed": true,
					"internalType": "address",
					"name": "account",
					"type": "address"
				},
				{
					"indexed": true,
					"internalType": "address",
					"name": "sender",
					"type": "address"
				}
			],
			"name": "RoleRevoked",
			"type": "event"
		},
		{
			"anonymous": false,
			"inputs": [
				{
					"indexed": true,
					"internalType": "address",
					"name": "from",
					"type": "address"
				},
				{
					"indexed": true,
					"internalType": "address",
					"name": "to",
					"type": "address"
				},
				{
					"indexed": true,
					"internalType": "uint256",
					"name": "tokenId",
					"type": "uint256"
				}
			],
			"name": "Transfer",
			"type": "event"
		},
		{
			"inputs": [],
			"name": "ADMIN_ROLE",
			"outputs": [
				{
					"internalType": "bytes32",
					"name": "",
					"type": "bytes32"
				}
			],
			"stateMutability": "view",
			"type": "function"
		},
		{
			"inputs": [],
			"name": "DEFAULT_ADMIN_ROLE",
			"outputs": [
				{
					"internalType": "bytes32",
					"name": "",
					"type": "bytes32"
				}
			],
			"stateMutability": "view",
			"type": "function"
		},
		{
			"inputs": [
				{
					"internalType": "address",
					"name": "to",
					"type": "address"
				},
				{
					"internalType": "uint256",
					"name": "tokenId",
					"type": "uint256"
				}
			],
			"name": "approve",
			"outputs": [],
			"stateMutability": "nonpayable",
			"type": "function"
		},
		{
			"inputs": [
				{
					"internalType": "address",
					"name": "owner",
					"type": "address"
				}
			],
			"name": "balanceOf",
			"outputs": [
				{
					"internalType": "uint256",
					"name": "",
					"type": "uint256"
				}
			],
			"stateMutability": "view",
			"type": "function"
		},
		{
			"inputs": [
				{
					"internalType": "uint256",
					"name": "_satelliteImageId",
					"type": "uint256"
				}
			],
			"name": "buySatelliteImage",
			"outputs": [],
			"stateMutability": "payable",
			"type": "function"
		},
		{
			"inputs": [],
			"name": "donation",
			"outputs": [
				{
					"internalType": "uint256",
					"name": "",
					"type": "uint256"
				}
			],
			"stateMutability": "view",
			"type": "function"
		},
		{
			"inputs": [
				{
					"internalType": "uint256",
					"name": "tokenId",
					"type": "uint256"
				}
			],
			"name": "getApproved",
			"outputs": [
				{
					"internalType": "address",
					"name": "",
					"type": "address"
				}
			],
			"stateMutability": "view",
			"type": "function"
		},
		{
			"inputs": [
				{
					"internalType": "string",
					"name": "name",
					"type": "string"
				}
			],
			"name": "getProtectedAreaByName",
			"outputs": [
				{
					"components": [
						{
							"internalType": "uint256",
							"name": "id",
							"type": "uint256"
						},
						{
							"internalType": "string",
							"name": "name",
							"type": "string"
						},
						{
							"internalType": "string",
							"name": "footprint",
							"type": "string"
						},
						{
							"internalType": "string",
							"name": "lastDetectionDate",
							"type": "string"
						},
						{
							"internalType": "string",
							"name": "totalExtension",
							"type": "string"
						},
						{
							"internalType": "string[]",
							"name": "detectionDates",
							"type": "string[]"
						},
						{
							"internalType": "string[]",
							"name": "forestCoverExtensions",
							"type": "string[]"
						},
						{
							"internalType": "address[]",
							"name": "donates",
							"type": "address[]"
						},
						{
							"components": [
								{
									"internalType": "uint256",
									"name": "id",
									"type": "uint256"
								},
								{
									"internalType": "contract IERC721",
									"name": "nft",
									"type": "address"
								},
								{
									"internalType": "string",
									"name": "uri",
									"type": "string"
								},
								{
									"internalType": "uint256",
									"name": "price",
									"type": "uint256"
								},
								{
									"internalType": "bool",
									"name": "sold",
									"type": "bool"
								},
								{
									"internalType": "address payable",
									"name": "seller",
									"type": "address"
								}
							],
							"internalType": "struct Biorbit.SatelliteImage[]",
							"name": "satelliteImages",
							"type": "tuple[]"
						}
					],
					"internalType": "struct Biorbit.ProtectedArea",
					"name": "",
					"type": "tuple"
				}
			],
			"stateMutability": "view",
			"type": "function"
		},
		{
			"inputs": [],
			"name": "getProtectedAreasByUsedNames",
			"outputs": [
				{
					"components": [
						{
							"internalType": "uint256",
							"name": "id",
							"type": "uint256"
						},
						{
							"internalType": "string",
							"name": "name",
							"type": "string"
						},
						{
							"internalType": "string",
							"name": "footprint",
							"type": "string"
						},
						{
							"internalType": "string",
							"name": "lastDetectionDate",
							"type": "string"
						},
						{
							"internalType": "string",
							"name": "totalExtension",
							"type": "string"
						},
						{
							"internalType": "string[]",
							"name": "detectionDates",
							"type": "string[]"
						},
						{
							"internalType": "string[]",
							"name": "forestCoverExtensions",
							"type": "string[]"
						},
						{
							"internalType": "address[]",
							"name": "donates",
							"type": "address[]"
						},
						{
							"components": [
								{
									"internalType": "uint256",
									"name": "id",
									"type": "uint256"
								},
								{
									"internalType": "contract IERC721",
									"name": "nft",
									"type": "address"
								},
								{
									"internalType": "string",
									"name": "uri",
									"type": "string"
								},
								{
									"internalType": "uint256",
									"name": "price",
									"type": "uint256"
								},
								{
									"internalType": "bool",
									"name": "sold",
									"type": "bool"
								},
								{
									"internalType": "address payable",
									"name": "seller",
									"type": "address"
								}
							],
							"internalType": "struct Biorbit.SatelliteImage[]",
							"name": "satelliteImages",
							"type": "tuple[]"
						}
					],
					"internalType": "struct Biorbit.ProtectedArea[]",
					"name": "",
					"type": "tuple[]"
				}
			],
			"stateMutability": "view",
			"type": "function"
		},
		{
			"inputs": [
				{
					"internalType": "bytes32",
					"name": "role",
					"type": "bytes32"
				}
			],
			"name": "getRoleAdmin",
			"outputs": [
				{
					"internalType": "bytes32",
					"name": "",
					"type": "bytes32"
				}
			],
			"stateMutability": "view",
			"type": "function"
		},
		{
			"inputs": [
				{
					"internalType": "uint256",
					"name": "_satelliteImageId",
					"type": "uint256"
				}
			],
			"name": "getSatelliteImage",
			"outputs": [
				{
					"components": [
						{
							"internalType": "uint256",
							"name": "id",
							"type": "uint256"
						},
						{
							"internalType": "contract IERC721",
							"name": "nft",
							"type": "address"
						},
						{
							"internalType": "string",
							"name": "uri",
							"type": "string"
						},
						{
							"internalType": "uint256",
							"name": "price",
							"type": "uint256"
						},
						{
							"internalType": "bool",
							"name": "sold",
							"type": "bool"
						},
						{
							"internalType": "address payable",
							"name": "seller",
							"type": "address"
						}
					],
					"internalType": "struct Biorbit.SatelliteImage",
					"name": "",
					"type": "tuple"
				}
			],
			"stateMutability": "view",
			"type": "function"
		},
		{
			"inputs": [
				{
					"internalType": "string",
					"name": "_protectedAreaName",
					"type": "string"
				}
			],
			"name": "getSoldSatelliteImagesByProtectedArea",
			"outputs": [
				{
					"components": [
						{
							"internalType": "uint256",
							"name": "id",
							"type": "uint256"
						},
						{
							"internalType": "contract IERC721",
							"name": "nft",
							"type": "address"
						},
						{
							"internalType": "string",
							"name": "uri",
							"type": "string"
						},
						{
							"internalType": "uint256",
							"name": "price",
							"type": "uint256"
						},
						{
							"internalType": "bool",
							"name": "sold",
							"type": "bool"
						},
						{
							"internalType": "address payable",
							"name": "seller",
							"type": "address"
						}
					],
					"internalType": "struct Biorbit.SatelliteImage[]",
					"name": "",
					"type": "tuple[]"
				}
			],
			"stateMutability": "view",
			"type": "function"
		},
		{
			"inputs": [
				{
					"internalType": "bytes32",
					"name": "role",
					"type": "bytes32"
				},
				{
					"internalType": "address",
					"name": "account",
					"type": "address"
				}
			],
			"name": "grantRole",
			"outputs": [],
			"stateMutability": "nonpayable",
			"type": "function"
		},
		{
			"inputs": [
				{
					"internalType": "bytes32",
					"name": "role",
					"type": "bytes32"
				},
				{
					"internalType": "address",
					"name": "account",
					"type": "address"
				}
			],
			"name": "hasRole",
			"outputs": [
				{
					"internalType": "bool",
					"name": "",
					"type": "bool"
				}
			],
			"stateMutability": "view",
			"type": "function"
		},
		{
			"inputs": [
				{
					"internalType": "address",
					"name": "owner",
					"type": "address"
				},
				{
					"internalType": "address",
					"name": "operator",
					"type": "address"
				}
			],
			"name": "isApprovedForAll",
			"outputs": [
				{
					"internalType": "bool",
					"name": "",
					"type": "bool"
				}
			],
			"stateMutability": "view",
			"type": "function"
		},
		{
			"inputs": [
				{
					"internalType": "uint256",
					"name": "_protectedAreaId",
					"type": "uint256"
				},
				{
					"internalType": "string",
					"name": "_protectedAreaName",
					"type": "string"
				},
				{
					"internalType": "string",
					"name": "_protectedAreaURI",
					"type": "string"
				}
			],
			"name": "mint",
			"outputs": [
				{
					"internalType": "uint256",
					"name": "",
					"type": "uint256"
				}
			],
			"stateMutability": "nonpayable",
			"type": "function"
		},
		{
			"inputs": [
				{
					"internalType": "string",
					"name": "_name",
					"type": "string"
				},
				{
					"internalType": "string",
					"name": "_footprint",
					"type": "string"
				}
			],
			"name": "monitorProtectedArea",
			"outputs": [],
			"stateMutability": "payable",
			"type": "function"
		},
		{
			"inputs": [],
			"name": "name",
			"outputs": [
				{
					"internalType": "string",
					"name": "",
					"type": "string"
				}
			],
			"stateMutability": "view",
			"type": "function"
		},
		{
			"inputs": [
				{
					"internalType": "uint256",
					"name": "tokenId",
					"type": "uint256"
				}
			],
			"name": "ownerOf",
			"outputs": [
				{
					"internalType": "address",
					"name": "",
					"type": "address"
				}
			],
			"stateMutability": "view",
			"type": "function"
		},
		{
			"inputs": [],
			"name": "price",
			"outputs": [
				{
					"internalType": "uint256",
					"name": "",
					"type": "uint256"
				}
			],
			"stateMutability": "view",
			"type": "function"
		},
		{
			"inputs": [],
			"name": "protectAreaIdCounter",
			"outputs": [
				{
					"internalType": "uint256",
					"name": "_value",
					"type": "uint256"
				}
			],
			"stateMutability": "view",
			"type": "function"
		},
		{
			"inputs": [],
			"name": "relay",
			"outputs": [
				{
					"internalType": "address",
					"name": "",
					"type": "address"
				}
			],
			"stateMutability": "view",
			"type": "function"
		},
		{
			"inputs": [
				{
					"internalType": "bytes32",
					"name": "role",
					"type": "bytes32"
				},
				{
					"internalType": "address",
					"name": "account",
					"type": "address"
				}
			],
			"name": "renounceRole",
			"outputs": [],
			"stateMutability": "nonpayable",
			"type": "function"
		},
		{
			"inputs": [
				{
					"internalType": "bytes32",
					"name": "role",
					"type": "bytes32"
				},
				{
					"internalType": "address",
					"name": "account",
					"type": "address"
				}
			],
			"name": "revokeRole",
			"outputs": [],
			"stateMutability": "nonpayable",
			"type": "function"
		},
		{
			"inputs": [
				{
					"internalType": "address",
					"name": "from",
					"type": "address"
				},
				{
					"internalType": "address",
					"name": "to",
					"type": "address"
				},
				{
					"internalType": "uint256",
					"name": "tokenId",
					"type": "uint256"
				}
			],
			"name": "safeTransferFrom",
			"outputs": [],
			"stateMutability": "nonpayable",
			"type": "function"
		},
		{
			"inputs": [
				{
					"internalType": "address",
					"name": "from",
					"type": "address"
				},
				{
					"internalType": "address",
					"name": "to",
					"type": "address"
				},
				{
					"internalType": "uint256",
					"name": "tokenId",
					"type": "uint256"
				},
				{
					"internalType": "bytes",
					"name": "data",
					"type": "bytes"
				}
			],
			"name": "safeTransferFrom",
			"outputs": [],
			"stateMutability": "nonpayable",
			"type": "function"
		},
		{
			"inputs": [],
			"name": "satelliteImageIdCounter",
			"outputs": [
				{
					"internalType": "uint256",
					"name": "_value",
					"type": "uint256"
				}
			],
			"stateMutability": "view",
			"type": "function"
		},
		{
			"inputs": [
				{
					"internalType": "uint256",
					"name": "",
					"type": "uint256"
				}
			],
			"name": "satelliteImagesOfProtectedArea",
			"outputs": [
				{
					"internalType": "string",
					"name": "",
					"type": "string"
				}
			],
			"stateMutability": "view",
			"type": "function"
		},
		{
			"inputs": [
				{
					"internalType": "uint256",
					"name": "_satelliteImageId",
					"type": "uint256"
				}
			],
			"name": "sellSatelliteImage",
			"outputs": [],
			"stateMutability": "nonpayable",
			"type": "function"
		},
		{
			"inputs": [
				{
					"internalType": "address",
					"name": "operator",
					"type": "address"
				},
				{
					"internalType": "bool",
					"name": "approved",
					"type": "bool"
				}
			],
			"name": "setApprovalForAll",
			"outputs": [],
			"stateMutability": "nonpayable",
			"type": "function"
		},
		{
			"inputs": [
				{
					"internalType": "uint256",
					"name": "_donation",
					"type": "uint256"
				}
			],
			"name": "setDonation",
			"outputs": [
				{
					"internalType": "uint256",
					"name": "",
					"type": "uint256"
				}
			],
			"stateMutability": "nonpayable",
			"type": "function"
		},
		{
			"inputs": [
				{
					"internalType": "uint256",
					"name": "_price",
					"type": "uint256"
				}
			],
			"name": "setPrice",
			"outputs": [
				{
					"internalType": "uint256",
					"name": "",
					"type": "uint256"
				}
			],
			"stateMutability": "nonpayable",
			"type": "function"
		},
		{
			"inputs": [
				{
					"internalType": "address",
					"name": "_relay",
					"type": "address"
				}
			],
			"name": "setRelayAddress",
			"outputs": [],
			"stateMutability": "nonpayable",
			"type": "function"
		},
		{
			"inputs": [
				{
					"internalType": "uint256",
					"name": "_protectedAreaId",
					"type": "uint256"
				},
				{
					"internalType": "string",
					"name": "_protectedAreaName",
					"type": "string"
				},
				{
					"internalType": "string",
					"name": "_lastDetectionDate",
					"type": "string"
				},
				{
					"internalType": "string",
					"name": "_totalExtension",
					"type": "string"
				},
				{
					"internalType": "string[]",
					"name": "_detectionDates",
					"type": "string[]"
				},
				{
					"internalType": "string[]",
					"name": "_forestCoverExtensions",
					"type": "string[]"
				}
			],
			"name": "storeMonitoringData",
			"outputs": [],
			"stateMutability": "nonpayable",
			"type": "function"
		},
		{
			"inputs": [
				{
					"internalType": "bytes4",
					"name": "interfaceId",
					"type": "bytes4"
				}
			],
			"name": "supportsInterface",
			"outputs": [
				{
					"internalType": "bool",
					"name": "",
					"type": "bool"
				}
			],
			"stateMutability": "view",
			"type": "function"
		},
		{
			"inputs": [],
			"name": "symbol",
			"outputs": [
				{
					"internalType": "string",
					"name": "",
					"type": "string"
				}
			],
			"stateMutability": "view",
			"type": "function"
		},
		{
			"inputs": [
				{
					"internalType": "uint256",
					"name": "tokenId",
					"type": "uint256"
				}
			],
			"name": "tokenURI",
			"outputs": [
				{
					"internalType": "string",
					"name": "",
					"type": "string"
				}
			],
			"stateMutability": "view",
			"type": "function"
		},
		{
			"inputs": [],
			"name": "totalAsserts",
			"outputs": [
				{
					"internalType": "uint256",
					"name": "",
					"type": "uint256"
				}
			],
			"stateMutability": "view",
			"type": "function"
		},
		{
			"inputs": [
				{
					"internalType": "address",
					"name": "from",
					"type": "address"
				},
				{
					"internalType": "address",
					"name": "to",
					"type": "address"
				},
				{
					"internalType": "uint256",
					"name": "tokenId",
					"type": "uint256"
				}
			],
			"name": "transferFrom",
			"outputs": [],
			"stateMutability": "nonpayable",
			"type": "function"
		}
	],
	"bytecode": "0x6080604052642e90edd000600b5564174876e800600c553480156200002357600080fd5b50604051620054d4380380620054d4833981016040819052620000469162000209565b60405180604001604052806007815260200166109a5bdc989a5d60ca1b815250604051806040016040528060038152602001621093d560ea1b815250816000908162000093919062000345565b506001620000a2828262000345565b5050600160085550620000b760003362000109565b620000e37fa49807205ce4d355092ef5a8a18f56e8913cf4a201fbe287825b095693c217753362000109565b600d80546001600160a01b0319166001600160a01b039290921691909117905562000415565b62000115828262000119565b5050565b620001258282620001a3565b620001155760008281526007602090815260408083206001600160a01b03851684529091529020805460ff191660011790556200015f3390565b6001600160a01b0316816001600160a01b0316837f2f8788117e7eff1d82e926ec794901d17c78024a50270940304540a733656f0d60405160405180910390a45050565b60008281526007602090815260408083206001600160a01b038516845290915290205460ff165b92915050565b60006001600160a01b038216620001ca565b620001ed81620001d0565b8114620001f957600080fd5b50565b8051620001ca81620001e2565b600060208284031215620002205762000220600080fd5b60006200022e8484620001fc565b949350505050565b634e487b7160e01b600052604160045260246000fd5b634e487b7160e01b600052602260045260246000fd5b6002810460018216806200027757607f821691505b6020821081036200028c576200028c6200024c565b50919050565b6000620001ca620002a08381565b90565b620002ae8362000292565b81546008840282811b60001990911b908116901990911617825550505050565b6000620002dd818484620002a3565b505050565b818110156200011557620002f8600082620002ce565b600101620002e2565b601f821115620002dd576000818152602090206020601f850104810160208510156200032a5750805b6200033e6020601f860104830182620002e2565b5050505050565b81516001600160401b0381111562000361576200036162000236565b6200036d825462000262565b6200037a82828562000301565b6020601f831160018114620003b15760008415620003985750858201515b600019600886021c19811660028602178655506200040d565b600085815260208120601f198616915b82811015620003e35788850151825560209485019460019092019101620003c1565b86831015620004005784890151600019601f89166008021c191682555b6001600288020188555050505b505050505050565b6150af80620004256000396000f3fe6080604052600436106102305760003560e01c806395d89b411161012e578063c87b56dd116100ab578063e5c65d301161006f578063e5c65d3014610695578063e772be31146106a8578063e985e9c5146106c8578063f49fba5614610711578063f676c6491461072857600080fd5b8063c87b56dd146105fe578063d547741f1461061e578063d59e1e541461063e578063d8e720041461066b578063dfef35071461068257600080fd5b8063aa9f7a89116100f2578063aa9f7a8914610551578063aeba8f3c1461057e578063b59589d11461059e578063b88d4fde146105be578063c1b79140146105de57600080fd5b806395d89b41146104de5780639d3a5fc4146104f3578063a035b1fe14610506578063a217fddf1461051c578063a22cb4651461053157600080fd5b806336568abe116101bc57806375b238fc1161018057806375b238fc146104395780637bb5c63d1461045b5780638edeb15d1461048857806391b7f5ed1461049e57806391d14854146104be57600080fd5b806336568abe14610399578063398440ba146103b957806342842e0e146103d95780636352211e146103f957806370a082311461041957600080fd5b806310fc459a1161020357806310fc459a146102dc57806323b872dd146102fc578063248a9ca31461031c5780632825df7b146103595780632f2ff15d1461037957600080fd5b806301ffc9a71461023557806306fdde031461026b578063081812fc1461028d578063095ea7b3146102ba575b600080fd5b34801561024157600080fd5b50610255610250366004613495565b61074a565b60405161026291906134c0565b60405180910390f35b34801561027757600080fd5b5061028061075b565b6040516102629190613524565b34801561029957600080fd5b506102ad6102a8366004613546565b6107ed565b6040516102629190613581565b3480156102c657600080fd5b506102da6102d53660046135a3565b610814565b005b3480156102e857600080fd5b506102da6102f7366004613546565b6108a2565b34801561030857600080fd5b506102da6103173660046135e0565b610b0a565b34801561032857600080fd5b5061034c610337366004613546565b60009081526007602052604090206001015490565b6040516102629190613636565b34801561036557600080fd5b5061034c610374366004613730565b610b3b565b34801561038557600080fd5b506102da6103943660046137aa565b610ba6565b3480156103a557600080fd5b506102da6103b43660046137aa565b610bcb565b3480156103c557600080fd5b5061034c6103d4366004613546565b610bfd565b3480156103e557600080fd5b506102da6103f43660046135e0565b610c67565b34801561040557600080fd5b506102ad610414366004613546565b610c82565b34801561042557600080fd5b5061034c6104343660046137dd565b610cb7565b34801561044557600080fd5b5061034c60008051602061505a83398151915281565b34801561046757600080fd5b5061047b6104763660046137fe565b610cfb565b6040516102629190613966565b34801561049457600080fd5b5061034c600b5481565b3480156104aa57600080fd5b5061034c6104b9366004613546565b61101a565b3480156104ca57600080fd5b506102556104d93660046137aa565b611080565b3480156104ea57600080fd5b506102806110ab565b6102da610501366004613977565b6110ba565b34801561051257600080fd5b5061034c600c5481565b34801561052857600080fd5b5061034c600081565b34801561053d57600080fd5b506102da61054c3660046139f0565b61121d565b34801561055d57600080fd5b5061057161056c366004613a74565b611228565b6040516102629190613cc4565b34801561058a57600080fd5b506102da6105993660046137dd565b6118ab565b3480156105aa57600080fd5b50600d546102ad906001600160a01b031681565b3480156105ca57600080fd5b506102da6105d9366004613cd5565b61190c565b3480156105ea57600080fd5b506102806105f9366004613546565b611944565b34801561060a57600080fd5b50610280610619366004613546565b6119de565b34801561062a57600080fd5b506102da6106393660046137aa565b6119e9565b34801561064a57600080fd5b5061065e610659366004613546565b611a0e565b6040516102629190613d53565b34801561067757600080fd5b5060095461034c9081565b6102da610690366004613546565b611ba5565b3480156106a157600080fd5b504761034c565b3480156106b457600080fd5b506102da6106c3366004613e22565b611c63565b3480156106d457600080fd5b506102556106e3366004613f2e565b6001600160a01b03918216600090815260056020908152604080832093909416825291909152205460ff1690565b34801561071d57600080fd5b50600a5461034c9081565b34801561073457600080fd5b5061073d611d82565b6040516102629190613fb5565b6000610755826124a1565b92915050565b60606000805461076a90613fdc565b80601f016020809104026020016040519081016040528092919081815260200182805461079690613fdc565b80156107e35780601f106107b8576101008083540402835291602001916107e3565b820191906000526020600020905b8154815290600101906020018083116107c657829003601f168201915b5050505050905090565b60006107f8826124c6565b506000908152600460205260409020546001600160a01b031690565b600061081f82610c82565b9050806001600160a01b0316836001600160a01b03160361085b5760405162461bcd60e51b815260040161085290614043565b60405180910390fd5b336001600160a01b0382161480610877575061087781336106e3565b6108935760405162461bcd60e51b8152600401610852906140ad565b61089d83836124fa565b505050565b60008051602061505a8339815191526108ba81612568565b6108c2612572565b600082815260106020526040812080546108db90613fdc565b80601f016020809104026020016040519081016040528092919081815260200182805461090790613fdc565b80156109545780601f1061092957610100808354040283529160200191610954565b820191906000526020600020905b81548152906001019060200180831161093757829003601f168201915b50506040516331a9108f60e11b8152939450600093309350636352211e925061098291508790600401613636565b602060405180830381865afa15801561099f573d6000803e3d6000fd5b505050506040513d601f19601f820116820180604052508101906109c391906140c8565b60405163020604bf60e21b8152909150600090309063081812fc906109ec908890600401613636565b602060405180830381865afa158015610a09573d6000803e3d6000fd5b505050506040513d601f19601f82011682018060405250810190610a2d91906140c8565b90506000835111610a505760405162461bcd60e51b81526004016108529061413b565b6001600160a01b0382163314610a785760405162461bcd60e51b815260040161085290614182565b6001600160a01b0381163014610aa05760405162461bcd60e51b8152600401610852906141c6565b6040516323b872dd60e01b815230906323b872dd90610ac790339084908a906004016141d6565b600060405180830381600087803b158015610ae157600080fd5b505af1158015610af5573d6000803e3d6000fd5b50505050505050610b066001600855565b5050565b610b14338261259b565b610b305760405162461bcd60e51b815260040161085290614248565b61089d83838361261a565b600060008051602061505a833981519152610b5581612568565b610b5f8486612742565b6000610b696127d6565b90506000610b788286336127f7565b9050610b8687878385612839565b610b903383612912565b610b9a828661292c565b5091505b509392505050565b600082815260076020526040902060010154610bc181612568565b61089d8383612978565b6001600160a01b0381163314610bf35760405162461bcd60e51b8152600401610852906142a4565b610b0682826129fe565b600060008051602061505a833981519152610c1781612568565b600b548303610c385760405162461bcd60e51b8152600401610852906142fd565b60008311610c585760405162461bcd60e51b81526004016108529061435c565b600b8390558291505b50919050565b61089d8383836040518060200160405280600081525061190c565b6000818152600260205260408120546001600160a01b0316806107555760405162461bcd60e51b8152600401610852906143a0565b60006001600160a01b038216610cdf5760405162461bcd60e51b8152600401610852906143f6565b506001600160a01b031660009081526003602052604090205490565b6060600f82604051610d0d9190614428565b9081526040519081900360200190205460ff161515600114610d415760405162461bcd60e51b815260040161085290614476565b6000600e6000610d5085612a65565b81526020019081526020016000209050600081600801805490506001600160401b03811115610d8157610d81613644565b604051908082528060200260200182016040528015610dba57816020015b610da76133dd565b815260200190600190039081610d9f5790505b5090506000805b6008840154811015610f6457836008018181548110610de257610de2614486565b600091825260209091206004600590920201015460ff16610f5257836008018181548110610e1257610e12614486565b90600052602060002090600502016040518060c0016040529081600082015481526020016001820160009054906101000a90046001600160a01b03166001600160a01b03166001600160a01b03168152602001600282018054610e7490613fdc565b80601f0160208091040260200160405190810160405280929190818152602001828054610ea090613fdc565b8015610eed5780601f10610ec257610100808354040283529160200191610eed565b820191906000526020600020905b815481529060010190602001808311610ed057829003601f168201915b50505091835250506003820154602082015260049091015460ff81161515604083015261010090046001600160a01b03166060909101528351849084908110610f3857610f38614486565b60200260200101819052508180610f4e906144b2565b9250505b80610f5c816144b2565b915050610dc1565b506000816001600160401b03811115610f7f57610f7f613644565b604051908082528060200260200182016040528015610fb857816020015b610fa56133dd565b815260200190600190039081610f9d5790505b50905060005b8281101561101057838181518110610fd857610fd8614486565b6020026020010151828281518110610ff257610ff2614486565b60200260200101819052508080611008906144b2565b915050610fbe565b5095945050505050565b600060008051602061505a83398151915261103481612568565b600c5483036110555760405162461bcd60e51b815260040161085290614511565b600083116110755760405162461bcd60e51b81526004016108529061456c565b5050600c55600b5490565b60009182526007602090815260408084206001600160a01b0393909316845291905290205460ff1690565b60606001805461076a90613fdc565b600b543410156110dc5760405162461bcd60e51b8152600401610852906145a5565b600f826040516110ec9190614428565b9081526040519081900360200190205460ff161561111c5760405162461bcd60e51b8152600401610852906145fc565b6000611126612adc565b6000818152600e6020526040902090915061114381838686612af8565b6007810180546001810182556000918252602082200180546001600160a01b03191633179055600d546040516001600160a01b0391909116913480156108fc02929091818181858888f193505050501580156111a3573d6000803e3d6000fd5b506001600f856040516111b69190614428565b908152604051908190036020018120805492151560ff199093169290921790915581547f8689fd18b963b0e3ae1cc0f7fee7e636e6d71af156db3b9b10b6c7744c51d0149161120f919060018501906002860190614686565b60405180910390a150505050565b610b06338383612b1f565b611230613427565b60005b60095481101561189257838360405161124d9291906146cd565b604080519182900382206000848152600e6020529190912090916112749160010190614749565b60405180910390201480156112aa5750600f84846040516112969291906146cd565b9081526040519081900360200190205460ff165b1561188057600e600082815260200190815260200160002060405180610120016040529081600082015481526020016001820180546112e890613fdc565b80601f016020809104026020016040519081016040528092919081815260200182805461131490613fdc565b80156113615780601f1061133657610100808354040283529160200191611361565b820191906000526020600020905b81548152906001019060200180831161134457829003601f168201915b5050505050815260200160028201805461137a90613fdc565b80601f01602080910402602001604051908101604052809291908181526020018280546113a690613fdc565b80156113f35780601f106113c8576101008083540402835291602001916113f3565b820191906000526020600020905b8154815290600101906020018083116113d657829003601f168201915b5050505050815260200160038201805461140c90613fdc565b80601f016020809104026020016040519081016040528092919081815260200182805461143890613fdc565b80156114855780601f1061145a57610100808354040283529160200191611485565b820191906000526020600020905b81548152906001019060200180831161146857829003601f168201915b5050505050815260200160048201805461149e90613fdc565b80601f01602080910402602001604051908101604052809291908181526020018280546114ca90613fdc565b80156115175780601f106114ec57610100808354040283529160200191611517565b820191906000526020600020905b8154815290600101906020018083116114fa57829003601f168201915b5050505050815260200160058201805480602002602001604051908101604052809291908181526020016000905b828210156115f157838290600052602060002001805461156490613fdc565b80601f016020809104026020016040519081016040528092919081815260200182805461159090613fdc565b80156115dd5780601f106115b2576101008083540402835291602001916115dd565b820191906000526020600020905b8154815290600101906020018083116115c057829003601f168201915b505050505081526020019060010190611545565b50505050815260200160068201805480602002602001604051908101604052809291908181526020016000905b828210156116ca57838290600052602060002001805461163d90613fdc565b80601f016020809104026020016040519081016040528092919081815260200182805461166990613fdc565b80156116b65780601f1061168b576101008083540402835291602001916116b6565b820191906000526020600020905b81548152906001019060200180831161169957829003601f168201915b50505050508152602001906001019061161e565b5050505081526020016007820180548060200260200160405190810160405280929190818152602001828054801561172b57602002820191906000526020600020905b81546001600160a01b0316815260019091019060200180831161170d575b5050505050815260200160088201805480602002602001604051908101604052809291908181526020016000905b828210156118705760008481526020908190206040805160c081018252600586029092018054835260018101546001600160a01b031693830193909352600283018054929392918401916117ac90613fdc565b80601f01602080910402602001604051908101604052809291908181526020018280546117d890613fdc565b80156118255780601f106117fa57610100808354040283529160200191611825565b820191906000526020600020905b81548152906001019060200180831161180857829003601f168201915b5050509183525050600382015460208083019190915260049092015460ff81161515604083015261010090046001600160a01b03166060909101529082526001929092019101611759565b5050505081525050915050610755565b8061188a816144b2565b915050611233565b5060405162461bcd60e51b815260040161085290614793565b60008051602061505a8339815191526118c381612568565b6001600160a01b0382166118e95760405162461bcd60e51b8152600401610852906147cf565b50600d80546001600160a01b0319166001600160a01b0392909216919091179055565b611916338361259b565b6119325760405162461bcd60e51b815260040161085290614248565b61193e84848484612bc1565b50505050565b6010602052600090815260409020805461195d90613fdc565b80601f016020809104026020016040519081016040528092919081815260200182805461198990613fdc565b80156119d65780601f106119ab576101008083540402835291602001916119d6565b820191906000526020600020905b8154815290600101906020018083116119b957829003601f168201915b505050505081565b606061075582612bf4565b600082815260076020526040902060010154611a0481612568565b61089d83836129fe565b611a166133dd565b60005b600954811015611b8c576000818152600e60205260408120905b6008820154811015611b77576000826008018281548110611a5657611a56614486565b9060005260206000209060050201905085816000015403611b64576040805160c0810182528254815260018301546001600160a01b03166020820152600283018054919284929084019190611aaa90613fdc565b80601f0160208091040260200160405190810160405280929190818152602001828054611ad690613fdc565b8015611b235780601f10611af857610100808354040283529160200191611b23565b820191906000526020600020905b815481529060010190602001808311611b0657829003601f168201915b50505091835250506003820154602082015260049091015460ff81161515604083015261010090046001600160a01b03166060909101529695505050505050565b5080611b6f816144b2565b915050611a33565b50508080611b84906144b2565b915050611a19565b5060405162461bcd60e51b815260040161085290614813565b611bad612572565b600a54811115611bcf5760405162461bcd60e51b815260040161085290614857565b6000611bda82611a0e565b9050600c543414611bfd5760405162461bcd60e51b815260040161085290614891565b806080015115611c1f5760405162461bcd60e51b8152600401610852906148d5565b60016080820152600c54604051339180156108fc02916000818181858888f19350505050158015611c54573d6000803e3d6000fd5b5050611c606001600855565b50565b60008051602061505a833981519152611c7b81612568565b611c858688612742565b611c8e87612cfc565b6000878152600e6020526040902060038101611caa878261497b565b5060048101611cb9868261497b565b5060005b8451811015611d185781600501858281518110611cdc57611cdc614486565b60209081029190910181015182546001810184556000938452919092200190611d05908261497b565b5080611d10816144b2565b915050611cbd565b5060005b8351811015611d775781600601848281518110611d3b57611d3b614486565b60209081029190910181015182546001810184556000938452919092200190611d64908261497b565b5080611d6f816144b2565b915050611d1c565b505050505050505050565b60606000805b600954811015611def57600f600e6000838152602001908152602001600020600101604051611db79190614749565b9081526040519081900360200190205460ff1615611ddd5781611dd9816144b2565b9250505b80611de7816144b2565b915050611d88565b506000816001600160401b03811115611e0a57611e0a613644565b604051908082528060200260200182016040528015611e4357816020015b611e30613427565b815260200190600190039081611e285790505b5090506000805b60095481101561249857600f600e6000838152602001908152602001600020600101604051611e799190614749565b9081526040519081900360200190205460ff161561248657600e60008281526020019081526020016000206040518061012001604052908160008201548152602001600182018054611eca90613fdc565b80601f0160208091040260200160405190810160405280929190818152602001828054611ef690613fdc565b8015611f435780601f10611f1857610100808354040283529160200191611f43565b820191906000526020600020905b815481529060010190602001808311611f2657829003601f168201915b50505050508152602001600282018054611f5c90613fdc565b80601f0160208091040260200160405190810160405280929190818152602001828054611f8890613fdc565b8015611fd55780601f10611faa57610100808354040283529160200191611fd5565b820191906000526020600020905b815481529060010190602001808311611fb857829003601f168201915b50505050508152602001600382018054611fee90613fdc565b80601f016020809104026020016040519081016040528092919081815260200182805461201a90613fdc565b80156120675780601f1061203c57610100808354040283529160200191612067565b820191906000526020600020905b81548152906001019060200180831161204a57829003601f168201915b5050505050815260200160048201805461208090613fdc565b80601f01602080910402602001604051908101604052809291908181526020018280546120ac90613fdc565b80156120f95780601f106120ce576101008083540402835291602001916120f9565b820191906000526020600020905b8154815290600101906020018083116120dc57829003601f168201915b5050505050815260200160058201805480602002602001604051908101604052809291908181526020016000905b828210156121d357838290600052602060002001805461214690613fdc565b80601f016020809104026020016040519081016040528092919081815260200182805461217290613fdc565b80156121bf5780601f10612194576101008083540402835291602001916121bf565b820191906000526020600020905b8154815290600101906020018083116121a257829003601f168201915b505050505081526020019060010190612127565b50505050815260200160068201805480602002602001604051908101604052809291908181526020016000905b828210156122ac57838290600052602060002001805461221f90613fdc565b80601f016020809104026020016040519081016040528092919081815260200182805461224b90613fdc565b80156122985780601f1061226d57610100808354040283529160200191612298565b820191906000526020600020905b81548152906001019060200180831161227b57829003601f168201915b505050505081526020019060010190612200565b5050505081526020016007820180548060200260200160405190810160405280929190818152602001828054801561230d57602002820191906000526020600020905b81546001600160a01b031681526001909101906020018083116122ef575b5050505050815260200160088201805480602002602001604051908101604052809291908181526020016000905b828210156124525760008481526020908190206040805160c081018252600586029092018054835260018101546001600160a01b0316938301939093526002830180549293929184019161238e90613fdc565b80601f01602080910402602001604051908101604052809291908181526020018280546123ba90613fdc565b80156124075780601f106123dc57610100808354040283529160200191612407565b820191906000526020600020905b8154815290600101906020018083116123ea57829003601f168201915b5050509183525050600382015460208083019190915260049092015460ff81161515604083015261010090046001600160a01b0316606090910152908252600192909201910161233b565b505050508152505083838151811061246c5761246c614486565b60200260200101819052508180612482906144b2565b9250505b80612490816144b2565b915050611e4a565b50909392505050565b60006001600160e01b03198216637965db0b60e01b1480610755575061075582612daa565b6000818152600260205260409020546001600160a01b0316611c605760405162461bcd60e51b8152600401610852906143a0565b600081815260046020526040902080546001600160a01b0319166001600160a01b038416908117909155819061252f82610c82565b6001600160a01b03167f8c5be1e5ebec7d5bd14f71427d1e84f3dd0314c0f7b2291e5b200ac8c7c3b92560405160405180910390a45050565b611c608133612dfa565b6002600854036125945760405162461bcd60e51b815260040161085290614a71565b6002600855565b6000806125a783610c82565b9050806001600160a01b0316846001600160a01b031614806125ee57506001600160a01b0380821660009081526005602090815260408083209388168352929052205460ff165b806126125750836001600160a01b0316612607846107ed565b6001600160a01b0316145b949350505050565b826001600160a01b031661262d82610c82565b6001600160a01b0316146126535760405162461bcd60e51b815260040161085290614ac3565b6001600160a01b0382166126795760405162461bcd60e51b815260040161085290614b14565b826001600160a01b031661268c82610c82565b6001600160a01b0316146126b25760405162461bcd60e51b815260040161085290614ac3565b600081815260046020908152604080832080546001600160a01b03199081169091556001600160a01b0387811680865260038552838620805460001901905590871680865283862080546001019055868652600290945282852080549092168417909155905184937fddf252ad1be2c89b69c2b068fc378daa952ba7f163c4a11628f55a4df523b3ef91a4505050565b600f826040516127529190614428565b9081526040519081900360200190205460ff166127815760405162461bcd60e51b815260040161085290614b63565b6000600e600083815260200190815260200160002090508280519060200120816001016040516127b19190614749565b60405180910390201461089d5760405162461bcd60e51b815260040161085290614bb4565b6000806127e2600a5490565b90506127f2600a80546001019055565b919050565b6127ff6133dd565b506040805160c081018252938452306020850152830191909152600c546060830152600060808301526001600160a01b031660a082015290565b6000848152600e60209081526040808320600881018054600180820183559186529484902087516005909602019485559286015192840180546001600160a01b0319166001600160a01b03909416939093179092558401519091849160028201906128a4908261497b565b506060820151600382015560808201516004909101805460a0909301516001600160a01b031661010002610100600160a81b0319921515929092166001600160a81b031990931692909217179055600082815260106020526040902061290a858261497b565b505050505050565b610b06828260405180602001604052806000815250612e53565b6000828152600260205260409020546001600160a01b03166129605760405162461bcd60e51b815260040161085290614c0f565b600082815260066020526040902061089d828261497b565b6129828282611080565b610b065760008281526007602090815260408083206001600160a01b03851684529091529020805460ff191660011790556129ba3390565b6001600160a01b0316816001600160a01b0316837f2f8788117e7eff1d82e926ec794901d17c78024a50270940304540a733656f0d60405160405180910390a45050565b612a088282611080565b15610b065760008281526007602090815260408083206001600160a01b0385168085529252808320805460ff1916905551339285917ff6391f5c32d9c69d2a47ea670b442974b53935d1edc7fd64eb21e047a839171b9190a45050565b6000805b600954811015612ac3578280519060200120600e6000838152602001908152602001600020600101604051612a9e9190614749565b604051809103902003612ab15792915050565b80612abb816144b2565b915050612a69565b5060405162461bcd60e51b815260040161085290614c53565b600080612ae860095490565b90506127f2600980546001019055565b82845560018401612b09838261497b565b5060028401612b18828261497b565b5050505050565b816001600160a01b0316836001600160a01b031603612b505760405162461bcd60e51b815260040161085290614c97565b6001600160a01b0383811660008181526005602090815260408083209487168084529490915290819020805460ff1916851515179055517f17307eab39ab6107e8899845ad3d59bd9653f200f220920489ca2b5937696c3190612bb49085906134c0565b60405180910390a3505050565b612bcc84848461261a565b612bd884848484612e86565b61193e5760405162461bcd60e51b815260040161085290614cf6565b6060612bff826124c6565b60008281526006602052604081208054612c1890613fdc565b80601f0160208091040260200160405190810160405280929190818152602001828054612c4490613fdc565b8015612c915780601f10612c6657610100808354040283529160200191612c91565b820191906000526020600020905b815481529060010190602001808311612c7457829003601f168201915b505050505090506000612caf60408051602081019091526000815290565b90508051600003612cc1575092915050565b815115612cf3578082604051602001612cdb929190614d06565b60405160208183030381529060405292505050919050565b61261284612f87565b6000818152600e60205260409020600381018054612d1990613fdc565b159050612d385760405162461bcd60e51b815260040161085290614d68565b806004018054612d4790613fdc565b159050612d665760405162461bcd60e51b815260040161085290614dbf565b600581015415612d885760405162461bcd60e51b815260040161085290614e16565b600681015415610b065760405162461bcd60e51b815260040161085290614e74565b60006001600160e01b031982166380ac58cd60e01b1480612ddb57506001600160e01b03198216635b5e139f60e01b145b8061075557506301ffc9a760e01b6001600160e01b0319831614610755565b612e048282611080565b610b0657612e1181612ffb565b612e1c83602061300d565b604051602001612e2d929190614e84565b60408051601f198184030181529082905262461bcd60e51b825261085291600401613524565b612e5d8383613178565b612e6a6000848484612e86565b61089d5760405162461bcd60e51b815260040161085290614cf6565b60006001600160a01b0384163b15612f7c57604051630a85bd0160e11b81526001600160a01b0385169063150b7a0290612eca903390899088908890600401614ed8565b6020604051808303816000875af1925050508015612f05575060408051601f3d908101601f19168201909252612f0291810190614f27565b60015b612f62573d808015612f33576040519150601f19603f3d011682016040523d82523d6000602084013e612f38565b606091505b508051600003612f5a5760405162461bcd60e51b815260040161085290614cf6565b805181602001fd5b6001600160e01b031916630a85bd0160e11b149050612612565b506001949350505050565b6060612f92826124c6565b6000612fa960408051602081019091526000815290565b90506000815111612fc95760405180602001604052806000815250612ff4565b80612fd384613273565b604051602001612fe4929190614d06565b6040516020818303038152906040525b9392505050565b60606107556001600160a01b03831660145b6060600061301c836002614f48565b613027906002614f67565b6001600160401b0381111561303e5761303e613644565b6040519080825280601f01601f191660200182016040528015613068576020820181803683370190505b509050600360fc1b8160008151811061308357613083614486565b60200101906001600160f81b031916908160001a905350600f60fb1b816001815181106130b2576130b2614486565b60200101906001600160f81b031916908160001a90535060006130d6846002614f48565b6130e1906001614f67565b90505b6001811115613159576f181899199a1a9b1b9c1cb0b131b232b360811b85600f166010811061311557613115614486565b1a60f81b82828151811061312b5761312b614486565b60200101906001600160f81b031916908160001a90535060049490941c9361315281614f7a565b90506130e4565b508315612ff45760405162461bcd60e51b815260040161085290614fc3565b6001600160a01b03821661319e5760405162461bcd60e51b815260040161085290615005565b6000818152600260205260409020546001600160a01b0316156131d35760405162461bcd60e51b815260040161085290615049565b6000818152600260205260409020546001600160a01b0316156132085760405162461bcd60e51b815260040161085290615049565b6001600160a01b038216600081815260036020908152604080832080546001019055848352600290915280822080546001600160a01b0319168417905551839291907fddf252ad1be2c89b69c2b068fc378daa952ba7f163c4a11628f55a4df523b3ef908290a45050565b6060600061328083613305565b60010190506000816001600160401b0381111561329f5761329f613644565b6040519080825280601f01601f1916602001820160405280156132c9576020820181803683370190505b5090508181016020015b600019016f181899199a1a9b1b9c1cb0b131b232b360811b600a86061a8153600a85049450846132d357509392505050565b60008072184f03e93ff9f4daa797ed6e38ed64bf6a1f0160401b83106133445772184f03e93ff9f4daa797ed6e38ed64bf6a1f0160401b830492506040015b6d04ee2d6d415b85acef81000000008310613370576d04ee2d6d415b85acef8100000000830492506020015b662386f26fc10000831061338e57662386f26fc10000830492506010015b6305f5e10083106133a6576305f5e100830492506008015b61271083106133ba57612710830492506004015b606483106133cc576064830492506002015b600a83106107555760010192915050565b6040518060c001604052806000815260200160006001600160a01b03168152602001606081526020016000815260200160001515815260200160006001600160a01b031681525090565b6040518061012001604052806000815260200160608152602001606081526020016060815260200160608152602001606081526020016060815260200160608152602001606081525090565b6001600160e01b031981165b8114611c6057600080fd5b803561075581613473565b6000602082840312156134aa576134aa600080fd5b6000612612848461348a565b8015155b82525050565b6020810161075582846134b6565b60005b838110156134e95781810151838201526020016134d1565b50506000910152565b60006134fc825190565b8084526020840193506135138185602086016134ce565b601f01601f19169290920192915050565b60208082528101612ff481846134f2565b8061347f565b803561075581613535565b60006020828403121561355b5761355b600080fd5b6000612612848461353b565b60006001600160a01b038216610755565b6134ba81613567565b602081016107558284613578565b61347f81613567565b80356107558161358f565b600080604083850312156135b9576135b9600080fd5b60006135c58585613598565b92505060206135d68582860161353b565b9150509250929050565b6000806000606084860312156135f8576135f8600080fd5b60006136048686613598565b935050602061361586828701613598565b92505060406136268682870161353b565b9150509250925092565b806134ba565b602081016107558284613630565b634e487b7160e01b600052604160045260246000fd5b601f19601f83011681018181106001600160401b038211171561367f5761367f613644565b6040525050565b600061369160405190565b90506127f2828261365a565b60006001600160401b038211156136b6576136b6613644565b601f19601f83011660200192915050565b82818337506000910152565b60006136e66136e18461369d565b613686565b90508281526020810184848401111561370157613701600080fd5b610b9e8482856136c7565b600082601f83011261372057613720600080fd5b81356126128482602086016136d3565b60008060006060848603121561374857613748600080fd5b6000613754868661353b565b93505060208401356001600160401b0381111561377357613773600080fd5b61377f8682870161370c565b92505060408401356001600160401b0381111561379e5761379e600080fd5b6136268682870161370c565b600080604083850312156137c0576137c0600080fd5b60006137cc858561353b565b92505060206135d685828601613598565b6000602082840312156137f2576137f2600080fd5b60006126128484613598565b60006020828403121561381357613813600080fd5b81356001600160401b0381111561382c5761382c600080fd5b6126128482850161370c565b60006107556001600160a01b03831661384f565b90565b6001600160a01b031690565b600061075582613838565b60006107558261385b565b6134ba81613866565b805160009060c084019061388e8582613630565b5060208301516138a16020860182613871565b50604083015184820360408601526138b982826134f2565b91505060608301516138ce6060860182613630565b5060808301516138e160808601826134b6565b5060a0830151610b9e60a0860182613578565b6000612ff4838361387a565b600061390a825190565b808452602084019350836020820285016139248560200190565b8060005b85811015613959578484038952815161394185826138f4565b94506020830160209a909a0199925050600101613928565b5091979650505050505050565b60208082528101612ff48184613900565b6000806040838503121561398d5761398d600080fd5b82356001600160401b038111156139a6576139a6600080fd5b6139b28582860161370c565b92505060208301356001600160401b038111156139d1576139d1600080fd5b6135d68582860161370c565b80151561347f565b8035610755816139dd565b60008060408385031215613a0657613a06600080fd5b6000613a128585613598565b92505060206135d6858286016139e5565b60008083601f840112613a3857613a38600080fd5b5081356001600160401b03811115613a5257613a52600080fd5b602083019150836001820283011115613a6d57613a6d600080fd5b9250929050565b60008060208385031215613a8a57613a8a600080fd5b82356001600160401b03811115613aa357613aa3600080fd5b613aaf85828601613a23565b92509250509250929050565b6000612ff483836134f2565b6000613ad1825190565b80845260208401935083602082028501613aeb8560200190565b8060005b858110156139595784840389528151613b088582613abb565b94506020830160209a909a0199925050600101613aef565b6000613b2c8383613578565b505060200190565b6000613b3e825190565b80845260209384019383018060005b83811015613b72578151613b618882613b20565b975060208301925050600101613b4d565b509495945050505050565b6000613b87825190565b80845260208401935083602082028501613ba18560200190565b8060005b858110156139595784840389528151613bbe85826138f4565b94506020830160209a909a0199925050600101613ba5565b8051600090610120840190613beb8582613630565b5060208301518482036020860152613c0382826134f2565b91505060408301518482036040860152613c1d82826134f2565b91505060608301518482036060860152613c3782826134f2565b91505060808301518482036080860152613c5182826134f2565b91505060a083015184820360a0860152613c6b8282613ac7565b91505060c083015184820360c0860152613c858282613ac7565b91505060e083015184820360e0860152613c9f8282613b34565b915050610100830151848203610100860152613cbb8282613b7d565b95945050505050565b60208082528101612ff48184613bd6565b60008060008060808587031215613cee57613cee600080fd5b6000613cfa8787613598565b9450506020613d0b87828801613598565b9350506040613d1c8782880161353b565b92505060608501356001600160401b03811115613d3b57613d3b600080fd5b613d478782880161370c565b91505092959194509250565b60208082528101612ff4818461387a565b60006001600160401b03821115613d7d57613d7d613644565b5060209081020190565b6000613d956136e184613d64565b83815290506020808201908402830185811115613db457613db4600080fd5b835b81811015613df45780356001600160401b03811115613dd757613dd7600080fd5b808601613de4898261370c565b8552505060209283019201613db6565b5050509392505050565b600082601f830112613e1257613e12600080fd5b8135612612848260208601613d87565b60008060008060008060c08789031215613e3e57613e3e600080fd5b6000613e4a898961353b565b96505060208701356001600160401b03811115613e6957613e69600080fd5b613e7589828a0161370c565b95505060408701356001600160401b03811115613e9457613e94600080fd5b613ea089828a0161370c565b94505060608701356001600160401b03811115613ebf57613ebf600080fd5b613ecb89828a0161370c565b93505060808701356001600160401b03811115613eea57613eea600080fd5b613ef689828a01613dfe565b92505060a08701356001600160401b03811115613f1557613f15600080fd5b613f2189828a01613dfe565b9150509295509295509295565b60008060408385031215613f4457613f44600080fd5b60006137cc8585613598565b6000612ff48383613bd6565b6000613f66825190565b80845260208401935083602082028501613f808560200190565b8060005b858110156139595784840389528151613f9d8582613f50565b94506020830160209a909a0199925050600101613f84565b60208082528101612ff48184613f5c565b634e487b7160e01b600052602260045260246000fd5b600281046001821680613ff057607f821691505b602082108103610c6157610c61613fc6565b602181526000602082017f4552433732313a20617070726f76616c20746f2063757272656e74206f776e658152603960f91b602082015291505b5060400190565b6020808252810161075581614002565b603d81526000602082017f4552433732313a20617070726f76652063616c6c6572206973206e6f7420746f81527f6b656e206f776e6572206f7220617070726f76656420666f7220616c6c0000006020820152915061403c565b6020808252810161075581614053565b80516107558161358f565b6000602082840312156140dd576140dd600080fd5b600061261284846140bd565b603581526000602082017f536174656c6c69746520696d61676520646f65736e27742062656c6f6e672074815274379030b73c90383937ba32b1ba32b21030b932b09760591b6020820152915061403c565b60208082528101610755816140e9565b601981526000602082017f546865206f776e65722069736e2774204e4654206f776e657200000000000000815291505b5060200190565b602080825281016107558161414b565b601b81526000602082017f546865204e46542069736e277420617070726f766564207965742e00000000008152915061417b565b6020808252810161075581614192565b606081016141e48286613578565b6141f16020830185613578565b6126126040830184613630565b602d81526000602082017f4552433732313a2063616c6c6572206973206e6f7420746f6b656e206f776e6581526c1c881bdc88185c1c1c9bdd9959609a1b6020820152915061403c565b60208082528101610755816141fe565b602f81526000602082017f416363657373436f6e74726f6c3a2063616e206f6e6c792072656e6f756e636581526e103937b632b9903337b91039b2b63360891b6020820152915061403c565b6020808252810161075581614258565b602c81526000602082017f546865206e657720646f6e6174696f6e2076616c7565206d757374206e6f742081526b3132903a34329039b0b6b29760a11b6020820152915061403c565b60208082528101610755816142b4565b603281526000602082017f546865206e657720646f6e6174696f6e2076616c7565206d757374206265206481527134b33332b932b73a103737b716bd32b9379760711b6020820152915061403c565b602080825281016107558161430d565b601881526000602082017f4552433732313a20696e76616c696420746f6b656e20494400000000000000008152915061417b565b602080825281016107558161436c565b602981526000602082017f4552433732313a2061646472657373207a65726f206973206e6f7420612076618152683634b21037bbb732b960b91b6020820152915061403c565b60208082528101610755816143b0565b6000614410825190565b61441e8185602086016134ce565b9290920192915050565b6000612ff48284614406565b602581526000602082017f50726f74656374656420617265612069736e2774206265696e67206d6f6e697481526437b932b21760d91b6020820152915061403c565b6020808252810161075581614434565b634e487b7160e01b600052603260045260246000fd5b634e487b7160e01b600052601160045260246000fd5b600060001982036144c5576144c561449c565b5060010190565b602881526000602082017f546865206e6577204e465473207072696365206d757374206e6f74206265207481526734329039b0b6b29760c11b6020820152915061403c565b60208082528101610755816144cc565b602e81526000602082017f546865206e6577204e465473207072696365206d75737420626520646966666581526d3932b73a103737b716bd32b9379760911b6020820152915061403c565b6020808252810161075581614521565b6012815260006020820171496e73756666696369656e742066756e647360701b8152915061417b565b602080825281016107558161457c565b602a81526000602082017f50726f746563746564206172656120697320616c7265616479206265696e672081526936b7b734ba37b932b21760b11b6020820152915061403c565b60208082528101610755816145b5565b6000815461461981613fdc565b808552602085019450600182168015614639576001811461464f5761467d565b60ff19831686526020821515028601935061467d565b60008581526020902060005b838110156146775781548882015260019091019060200161465b565b87019450505b50505092915050565b606081016146948286613630565b81810360208301526146a6818561460c565b90508181036040830152613cbb818461460c565b60006146c78385846136c7565b50500190565b60006126128284866146ba565b600081546146e781613fdc565b6001821680156146fe57600181146147135761467d565b60ff198316865281151582028601935061467d565b60008581526020902060005b8381101561473b5781548882015260019091019060200161471f565b505050939093019392505050565b6000612ff482846146da565b602181526000602082017f4e6f206d61746368696e672070726f746563746564206172656120666f756e648152601760f91b6020820152915061403c565b6020808252810161075581614755565b6015815260006020820174496e76616c69642072656c6179206164647265737360581b8152915061417b565b60208082528101610755816147a3565b601881526000602082017f536174656c6c697465496d616765206e6f7420666f756e6400000000000000008152915061417b565b60208082528101610755816147df565b601e81526000602082017f536174656c6c69746520696d61676520646f65736e27742065786973742e00008152915061417b565b6020808252810161075581614823565b601381526000602082017224b739bab33334b1b4b2b73a10333ab732399760691b8152915061417b565b6020808252810161075581614867565b601d81526000602082017f536174656c6c69746520496d61676520616c726561647920736f6c642e0000008152915061417b565b60208082528101610755816148a1565b600061075561384c8381565b6148fa836148e5565b81546008840282811b60001990911b908116901990911617825550505050565b600061089d8184846148f1565b81811015610b065761493a60008261491a565b600101614927565b601f82111561089d576000818152602090206020601f850104810160208510156149695750805b612b186020601f860104830182614927565b81516001600160401b0381111561499457614994613644565b61499e8254613fdc565b6149a9828285614942565b6020601f8311600181146149dd57600084156149c55750858201515b600019600886021c198116600286021786555061290a565b600085815260208120601f198616915b82811015614a0d57888501518255602094850194600190920191016149ed565b86831015614a295784890151600019601f89166008021c191682555b600160028802018855505050505050505050565b601f81526000602082017f5265656e7472616e637947756172643a207265656e7472616e742063616c6c008152915061417b565b6020808252810161075581614a3d565b602581526000602082017f4552433732313a207472616e736665722066726f6d20696e636f72726563742081526437bbb732b960d91b6020820152915061403c565b6020808252810161075581614a81565b602481526000602082017f4552433732313a207472616e7366657220746f20746865207a65726f206164648152637265737360e01b6020820152915061403c565b6020808252810161075581614ad3565b602281526000602082017f50726f7465637465642061726561206973206265696e67206d6f6e69746f7265815261321760f11b6020820152915061403c565b6020808252810161075581614b24565b602481526000602082017f54686579206172656e2774207468652073616d652070726f74656374656420618152633932b09760e11b6020820152915061403c565b6020808252810161075581614b73565b602e81526000602082017f45524337323155524953746f726167653a2055524920736574206f66206e6f6e81526d32bc34b9ba32b73a103a37b5b2b760911b6020820152915061403c565b6020808252810161075581614bc4565b601981526000602082017f50726f7465637465642061726561206e6f7420666f756e642e000000000000008152915061417b565b6020808252810161075581614c1f565b601981526000602082017f4552433732313a20617070726f766520746f2063616c6c6572000000000000008152915061417b565b6020808252810161075581614c63565b603281526000602082017f4552433732313a207472616e7366657220746f206e6f6e20455243373231526581527131b2b4bb32b91034b6b83632b6b2b73a32b960711b6020820152915061403c565b6020808252810161075581614ca7565b6000614d128285614406565b91506126128284614406565b602d81526000602082017f50726f746563746564206172656120616c726561647920686173206c6173744481526c32ba32b1ba34b7b72230ba329760991b6020820152915061403c565b6020808252810161075581614d1e565b602a81526000602082017f50726f746563746564206172656120616c72656164792068617320746f74616c81526922bc3a32b739b4b7b71760b11b6020820152915061403c565b6020808252810161075581614d78565b602a81526000602082017f50726f746563746564206172656120616c7265616479206861732064657465638152693a34b7b72230ba32b99760b11b6020820152915061403c565b6020808252810161075581614dcf565b603181526000602082017f50726f746563746564206172656120616c72656164792068617320666f7265738152703a21b7bb32b922bc3a32b739b4b7b7399760791b6020820152915061403c565b6020808252810161075581614e26565b7f416363657373436f6e74726f6c3a206163636f756e742000000000000000000081526017016000614eb68285614406565b7001034b99036b4b9b9b4b733903937b6329607d1b8152915060118201614d12565b60808101614ee68287613578565b614ef36020830186613578565b614f006040830185613630565b8181036060830152614f1281846134f2565b9695505050505050565b805161075581613473565b600060208284031215614f3c57614f3c600080fd5b60006126128484614f1c565b818102808215838204851417614f6057614f6061449c565b5092915050565b808201808211156107555761075561449c565b600081614f8957614f8961449c565b506000190190565b60208082527f537472696e67733a20686578206c656e67746820696e73756666696369656e749101908152600061417b565b6020808252810161075581614f91565b60208082527f4552433732313a206d696e7420746f20746865207a65726f20616464726573739101908152600061417b565b6020808252810161075581614fd3565b601c81526000602082017f4552433732313a20746f6b656e20616c7265616479206d696e746564000000008152915061417b565b602080825281016107558161501556fea49807205ce4d355092ef5a8a18f56e8913cf4a201fbe287825b095693c21775a26469706673582212203fbfdaf4942769937d0ee0d710ab3f04310ad6b157c3bc851cbf87bf18e79f1864736f6c63430008110033",
	"linkReferences": {},
	"deployedLinkReferences": {}
}